{
  "_format": "hh-sol-artifact-1",
  "contractName": "ERC20Mock",
  "sourceName": "contracts/mocks/ERC20Mock.sol",
  "abi": [
    {
      "inputs": [],
      "stateMutability": "nonpayable",
      "type": "constructor"
    },
    {
      "anonymous": false,
      "inputs": [
        {
          "indexed": true,
          "internalType": "address",
          "name": "owner",
          "type": "address"
        },
        {
          "indexed": true,
          "internalType": "address",
          "name": "spender",
          "type": "address"
        },
        {
          "indexed": false,
          "internalType": "uint256",
          "name": "value",
          "type": "uint256"
        }
      ],
      "name": "Approval",
      "type": "event"
    },
    {
      "anonymous": false,
      "inputs": [
        {
          "indexed": true,
          "internalType": "address",
          "name": "from",
          "type": "address"
        },
        {
          "indexed": true,
          "internalType": "address",
          "name": "to",
          "type": "address"
        },
        {
          "indexed": false,
          "internalType": "uint256",
          "name": "value",
          "type": "uint256"
        }
      ],
      "name": "Transfer",
      "type": "event"
    },
    {
      "inputs": [
        {
          "internalType": "address",
          "name": "owner",
          "type": "address"
        },
        {
          "internalType": "address",
          "name": "spender",
          "type": "address"
        }
      ],
      "name": "allowance",
      "outputs": [
        {
          "internalType": "uint256",
          "name": "",
          "type": "uint256"
        }
      ],
      "stateMutability": "view",
      "type": "function"
    },
    {
      "inputs": [
        {
          "internalType": "address",
          "name": "spender",
          "type": "address"
        },
        {
          "internalType": "uint256",
          "name": "value",
          "type": "uint256"
        }
      ],
      "name": "approve",
      "outputs": [
        {
          "internalType": "bool",
          "name": "",
          "type": "bool"
        }
      ],
      "stateMutability": "nonpayable",
      "type": "function"
    },
    {
      "inputs": [
        {
          "internalType": "address",
          "name": "owner",
          "type": "address"
        }
      ],
      "name": "balanceOf",
      "outputs": [
        {
          "internalType": "uint256",
          "name": "",
          "type": "uint256"
        }
      ],
      "stateMutability": "view",
      "type": "function"
    },
    {
      "inputs": [
        {
          "internalType": "address[]",
          "name": "_tokens",
          "type": "address[]"
        },
        {
          "internalType": "address",
          "name": "_to",
          "type": "address"
        },
        {
          "internalType": "uint256[]",
          "name": "_amounts",
          "type": "uint256[]"
        }
      ],
      "name": "batchTransfer",
      "outputs": [],
      "stateMutability": "nonpayable",
      "type": "function"
    },
    {
      "inputs": [
        {
          "internalType": "address",
          "name": "spender",
          "type": "address"
        },
        {
          "internalType": "uint256",
          "name": "subtractedValue",
          "type": "uint256"
        }
      ],
      "name": "decreaseAllowance",
      "outputs": [
        {
          "internalType": "bool",
          "name": "",
          "type": "bool"
        }
      ],
      "stateMutability": "nonpayable",
      "type": "function"
    },
    {
      "inputs": [
        {
          "internalType": "address",
          "name": "spender",
          "type": "address"
        },
        {
          "internalType": "uint256",
          "name": "addedValue",
          "type": "uint256"
        }
      ],
      "name": "increaseAllowance",
      "outputs": [
        {
          "internalType": "bool",
          "name": "",
          "type": "bool"
        }
      ],
      "stateMutability": "nonpayable",
      "type": "function"
    },
    {
      "inputs": [
        {
          "internalType": "address",
          "name": "_address",
          "type": "address"
        },
        {
          "internalType": "uint256",
          "name": "_amount",
          "type": "uint256"
        }
      ],
      "name": "mockMint",
      "outputs": [],
      "stateMutability": "nonpayable",
      "type": "function"
    },
    {
      "inputs": [],
      "name": "totalSupply",
      "outputs": [
        {
          "internalType": "uint256",
          "name": "",
          "type": "uint256"
        }
      ],
      "stateMutability": "view",
      "type": "function"
    },
    {
      "inputs": [
        {
          "internalType": "address",
          "name": "to",
          "type": "address"
        },
        {
          "internalType": "uint256",
          "name": "value",
          "type": "uint256"
        }
      ],
      "name": "transfer",
      "outputs": [
        {
          "internalType": "bool",
          "name": "",
          "type": "bool"
        }
      ],
      "stateMutability": "nonpayable",
      "type": "function"
    },
    {
      "inputs": [
        {
          "internalType": "address",
          "name": "from",
          "type": "address"
        },
        {
          "internalType": "address",
          "name": "to",
          "type": "address"
        },
        {
          "internalType": "uint256",
          "name": "value",
          "type": "uint256"
        }
      ],
      "name": "transferFrom",
      "outputs": [
        {
          "internalType": "bool",
          "name": "",
          "type": "bool"
        }
      ],
      "stateMutability": "nonpayable",
      "type": "function"
    }
  ],
  "bytecode": "0x608060405234801561001057600080fd5b50610a54806100206000396000f3fe608060405234801561001057600080fd5b50600436106100be5760003560e01c80633950935111610076578063a457c2d71161005b578063a457c2d714610181578063a9059cbb14610194578063dd62ed3e146101a757600080fd5b8063395093511461013857806370a082311461014b57600080fd5b806323b872dd116100a757806323b872dd146100fd5780632e72102f14610110578063378934b41461012557600080fd5b8063095ea7b3146100c357806318160ddd146100eb575b600080fd5b6100d66100d13660046107b2565b6101ed565b60405190151581526020015b60405180910390f35b6002545b6040519081526020016100e2565b6100d661010b3660046107dc565b610203565b61012361011e366004610864565b610261565b005b6101236101333660046107b2565b610388565b6100d66101463660046107b2565b610396565b6100ef6101593660046108e8565b73ffffffffffffffffffffffffffffffffffffffff1660009081526020819052604090205490565b6100d661018f3660046107b2565b6103d9565b6100d66101a23660046107b2565b61041c565b6100ef6101b5366004610903565b73ffffffffffffffffffffffffffffffffffffffff918216600090815260016020908152604080832093909416825291909152205490565b60006101fa338484610429565b50600192915050565b60006102108484846104d8565b73ffffffffffffffffffffffffffffffffffffffff841660009081526001602090815260408083203380855292529091205461025791869161025290866105c2565b610429565b5060019392505050565b60005b818110156103805785858281811061027e5761027e610936565b905060200201602081019061029391906108e8565b73ffffffffffffffffffffffffffffffffffffffff1663a9059cbb858585858181106102c1576102c1610936565b6040517fffffffff0000000000000000000000000000000000000000000000000000000060e087901b16815273ffffffffffffffffffffffffffffffffffffffff90941660048501526020029190910135602483015250604401602060405180830381600087803b15801561033557600080fd5b505af1158015610349573d6000803e3d6000fd5b505050506040513d601f19601f8201168201806040525081019061036d9190610965565b5080610378816109b6565b915050610264565b505050505050565b6103928282610647565b5050565b33600081815260016020908152604080832073ffffffffffffffffffffffffffffffffffffffff8716845290915281205490916101fa9185906102529086610709565b33600081815260016020908152604080832073ffffffffffffffffffffffffffffffffffffffff8716845290915281205490916101fa91859061025290866105c2565b60006101fa3384846104d8565b73ffffffffffffffffffffffffffffffffffffffff821661044957600080fd5b73ffffffffffffffffffffffffffffffffffffffff831661046957600080fd5b73ffffffffffffffffffffffffffffffffffffffff83811660008181526001602090815260408083209487168084529482529182902085905590518481527f8c5be1e5ebec7d5bd14f71427d1e84f3dd0314c0f7b2291e5b200ac8c7c3b92591015b60405180910390a3505050565b73ffffffffffffffffffffffffffffffffffffffff82166104f857600080fd5b73ffffffffffffffffffffffffffffffffffffffff831660009081526020819052604090205461052890826105c2565b73ffffffffffffffffffffffffffffffffffffffff80851660009081526020819052604080822093909355908416815220546105649082610709565b73ffffffffffffffffffffffffffffffffffffffff8381166000818152602081815260409182902094909455518481529092918616917fddf252ad1be2c89b69c2b068fc378daa952ba7f163c4a11628f55a4df523b3ef91016104cb565b600082821115610633576040517f08c379a000000000000000000000000000000000000000000000000000000000815260206004820152601760248201527f536166654d617468237375623a20554e444552464c4f5700000000000000000060448201526064015b60405180910390fd5b600061063f83856109ef565b949350505050565b73ffffffffffffffffffffffffffffffffffffffff821661066757600080fd5b6002546106749082610709565b60025573ffffffffffffffffffffffffffffffffffffffff82166000908152602081905260409020546106a79082610709565b73ffffffffffffffffffffffffffffffffffffffff8316600081815260208181526040808320949094559251848152919290917fddf252ad1be2c89b69c2b068fc378daa952ba7f163c4a11628f55a4df523b3ef910160405180910390a35050565b6000806107168385610a06565b905083811015610782576040517f08c379a000000000000000000000000000000000000000000000000000000000815260206004820152601660248201527f536166654d617468236164643a204f564552464c4f5700000000000000000000604482015260640161062a565b9392505050565b803573ffffffffffffffffffffffffffffffffffffffff811681146107ad57600080fd5b919050565b600080604083850312156107c557600080fd5b6107ce83610789565b946020939093013593505050565b6000806000606084860312156107f157600080fd5b6107fa84610789565b925061080860208501610789565b9150604084013590509250925092565b60008083601f84011261082a57600080fd5b50813567ffffffffffffffff81111561084257600080fd5b6020830191508360208260051b850101111561085d57600080fd5b9250929050565b60008060008060006060868803121561087c57600080fd5b853567ffffffffffffffff8082111561089457600080fd5b6108a089838a01610818565b90975095508591506108b460208901610789565b945060408801359150808211156108ca57600080fd5b506108d788828901610818565b969995985093965092949392505050565b6000602082840312156108fa57600080fd5b61078282610789565b6000806040838503121561091657600080fd5b61091f83610789565b915061092d60208401610789565b90509250929050565b7f4e487b7100000000000000000000000000000000000000000000000000000000600052603260045260246000fd5b60006020828403121561097757600080fd5b8151801515811461078257600080fd5b7f4e487b7100000000000000000000000000000000000000000000000000000000600052601160045260246000fd5b60007fffffffffffffffffffffffffffffffffffffffffffffffffffffffffffffffff8214156109e8576109e8610987565b5060010190565b600082821015610a0157610a01610987565b500390565b60008219821115610a1957610a19610987565b50019056fea2646970667358221220b079805f245f1faa01943a392f242fdde3d4a8841a37eab6155f89ac830e404964736f6c63430008090033",
  "linkReferences": {},
  "deployedLinkReferences": {}
}