{
  "_format": "hh-sol-artifact-1",
  "contractName": "ERC1155",
  "sourceName": "contracts/tokens/ERC1155/ERC1155.sol",
  "abi": [
    {
      "anonymous": false,
      "inputs": [
        {
          "indexed": true,
          "internalType": "address",
          "name": "_owner",
          "type": "address"
        },
        {
          "indexed": true,
          "internalType": "address",
          "name": "_operator",
          "type": "address"
        },
        {
          "indexed": false,
          "internalType": "bool",
          "name": "_approved",
          "type": "bool"
        }
      ],
      "name": "ApprovalForAll",
      "type": "event"
    },
    {
      "anonymous": false,
      "inputs": [
        {
          "indexed": true,
          "internalType": "address",
          "name": "_operator",
          "type": "address"
        },
        {
          "indexed": true,
          "internalType": "address",
          "name": "_from",
          "type": "address"
        },
        {
          "indexed": true,
          "internalType": "address",
          "name": "_to",
          "type": "address"
        },
        {
          "indexed": false,
          "internalType": "uint256[]",
          "name": "_ids",
          "type": "uint256[]"
        },
        {
          "indexed": false,
          "internalType": "uint256[]",
          "name": "_amounts",
          "type": "uint256[]"
        }
      ],
      "name": "TransferBatch",
      "type": "event"
    },
    {
      "anonymous": false,
      "inputs": [
        {
          "indexed": true,
          "internalType": "address",
          "name": "_operator",
          "type": "address"
        },
        {
          "indexed": true,
          "internalType": "address",
          "name": "_from",
          "type": "address"
        },
        {
          "indexed": true,
          "internalType": "address",
          "name": "_to",
          "type": "address"
        },
        {
          "indexed": false,
          "internalType": "uint256",
          "name": "_id",
          "type": "uint256"
        },
        {
          "indexed": false,
          "internalType": "uint256",
          "name": "_amount",
          "type": "uint256"
        }
      ],
      "name": "TransferSingle",
      "type": "event"
    },
    {
      "inputs": [
        {
          "internalType": "address",
          "name": "_owner",
          "type": "address"
        },
        {
          "internalType": "uint256",
          "name": "_id",
          "type": "uint256"
        }
      ],
      "name": "balanceOf",
      "outputs": [
        {
          "internalType": "uint256",
          "name": "",
          "type": "uint256"
        }
      ],
      "stateMutability": "view",
      "type": "function"
    },
    {
      "inputs": [
        {
          "internalType": "address[]",
          "name": "_owners",
          "type": "address[]"
        },
        {
          "internalType": "uint256[]",
          "name": "_ids",
          "type": "uint256[]"
        }
      ],
      "name": "balanceOfBatch",
      "outputs": [
        {
          "internalType": "uint256[]",
          "name": "",
          "type": "uint256[]"
        }
      ],
      "stateMutability": "view",
      "type": "function"
    },
    {
      "inputs": [
        {
          "internalType": "address",
          "name": "_owner",
          "type": "address"
        },
        {
          "internalType": "address",
          "name": "_operator",
          "type": "address"
        }
      ],
      "name": "isApprovedForAll",
      "outputs": [
        {
          "internalType": "bool",
          "name": "isOperator",
          "type": "bool"
        }
      ],
      "stateMutability": "view",
      "type": "function"
    },
    {
      "inputs": [
        {
          "internalType": "address",
          "name": "_from",
          "type": "address"
        },
        {
          "internalType": "address",
          "name": "_to",
          "type": "address"
        },
        {
          "internalType": "uint256[]",
          "name": "_ids",
          "type": "uint256[]"
        },
        {
          "internalType": "uint256[]",
          "name": "_amounts",
          "type": "uint256[]"
        },
        {
          "internalType": "bytes",
          "name": "_data",
          "type": "bytes"
        }
      ],
      "name": "safeBatchTransferFrom",
      "outputs": [],
      "stateMutability": "nonpayable",
      "type": "function"
    },
    {
      "inputs": [
        {
          "internalType": "address",
          "name": "_from",
          "type": "address"
        },
        {
          "internalType": "address",
          "name": "_to",
          "type": "address"
        },
        {
          "internalType": "uint256",
          "name": "_id",
          "type": "uint256"
        },
        {
          "internalType": "uint256",
          "name": "_amount",
          "type": "uint256"
        },
        {
          "internalType": "bytes",
          "name": "_data",
          "type": "bytes"
        }
      ],
      "name": "safeTransferFrom",
      "outputs": [],
      "stateMutability": "nonpayable",
      "type": "function"
    },
    {
      "inputs": [
        {
          "internalType": "address",
          "name": "_operator",
          "type": "address"
        },
        {
          "internalType": "bool",
          "name": "_approved",
          "type": "bool"
        }
      ],
      "name": "setApprovalForAll",
      "outputs": [],
      "stateMutability": "nonpayable",
      "type": "function"
    },
    {
      "inputs": [
        {
          "internalType": "bytes4",
          "name": "_interfaceID",
          "type": "bytes4"
        }
      ],
      "name": "supportsInterface",
      "outputs": [
        {
          "internalType": "bool",
          "name": "",
          "type": "bool"
        }
      ],
      "stateMutability": "pure",
      "type": "function"
    }
  ],
  "bytecode": "0x608060405234801561001057600080fd5b5061177f806100206000396000f3fe608060405234801561001057600080fd5b506004361061007c5760003560e01c80634e1273f41161005b5780634e1273f41461010d578063a22cb4651461012d578063e985e9c514610140578063f242432a1461018957600080fd5b8062fdd58e1461008157806301ffc9a7146100d55780632eb2c2d6146100f8575b600080fd5b6100c261008f366004611073565b73ffffffffffffffffffffffffffffffffffffffff91909116600090815260208181526040808320938352929052205490565b6040519081526020015b60405180910390f35b6100e86100e33660046110ce565b61019c565b60405190151581526020016100cc565b61010b610106366004611286565b610238565b005b61012061011b366004611330565b6103e1565b6040516100cc919061142b565b61010b61013b36600461143e565b610581565b6100e861014e36600461147a565b73ffffffffffffffffffffffffffffffffffffffff918216600090815260016020908152604080832093909416825291909152205460ff1690565b61010b6101973660046114ad565b610618565b60007fffffffff0000000000000000000000000000000000000000000000000000000082167fd9b67a260000000000000000000000000000000000000000000000000000000014156101f057506001919050565b507fffffffff00000000000000000000000000000000000000000000000000000000167f01ffc9a7000000000000000000000000000000000000000000000000000000001490565b3373ffffffffffffffffffffffffffffffffffffffff8616148061028c575073ffffffffffffffffffffffffffffffffffffffff8516600090815260016020908152604080832033845290915290205460ff165b61031d576040517f08c379a000000000000000000000000000000000000000000000000000000000815260206004820152602f60248201527f45524331313535237361666542617463685472616e7366657246726f6d3a204960448201527f4e56414c49445f4f50455241544f52000000000000000000000000000000000060648201526084015b60405180910390fd5b73ffffffffffffffffffffffffffffffffffffffff84166103c0576040517f08c379a000000000000000000000000000000000000000000000000000000000815260206004820152603060248201527f45524331313535237361666542617463685472616e7366657246726f6d3a204960448201527f4e56414c49445f524543495049454e54000000000000000000000000000000006064820152608401610314565b6103cc858585856107b5565b6103da858585855a86610aec565b5050505050565b60608151835114610474576040517f08c379a000000000000000000000000000000000000000000000000000000000815260206004820152602c60248201527f455243313135352362616c616e63654f6642617463683a20494e56414c49445f60448201527f41525241595f4c454e47544800000000000000000000000000000000000000006064820152608401610314565b6000835167ffffffffffffffff811115610490576104906110eb565b6040519080825280602002602001820160405280156104b9578160200160208202803683370190505b50905060005b8451811015610579576000808683815181106104dd576104dd611512565b602002602001015173ffffffffffffffffffffffffffffffffffffffff1673ffffffffffffffffffffffffffffffffffffffff168152602001908152602001600020600085838151811061053357610533611512565b602002602001015181526020019081526020016000205482828151811061055c5761055c611512565b60209081029190910101528061057181611570565b9150506104bf565b509392505050565b33600081815260016020908152604080832073ffffffffffffffffffffffffffffffffffffffff87168085529083529281902080547fffffffffffffffffffffffffffffffffffffffffffffffffffffffffffffff001686151590811790915590519081529192917f17307eab39ab6107e8899845ad3d59bd9653f200f220920489ca2b5937696c31910160405180910390a35050565b3373ffffffffffffffffffffffffffffffffffffffff8616148061066c575073ffffffffffffffffffffffffffffffffffffffff8516600090815260016020908152604080832033845290915290205460ff165b6106f8576040517f08c379a000000000000000000000000000000000000000000000000000000000815260206004820152602a60248201527f4552433131353523736166655472616e7366657246726f6d3a20494e56414c4960448201527f445f4f50455241544f52000000000000000000000000000000000000000000006064820152608401610314565b73ffffffffffffffffffffffffffffffffffffffff841661079b576040517f08c379a000000000000000000000000000000000000000000000000000000000815260206004820152602b60248201527f4552433131353523736166655472616e7366657246726f6d3a20494e56414c4960448201527f445f524543495049454e540000000000000000000000000000000000000000006064820152608401610314565b6107a785858585610c84565b6103da858585855a86610d85565b8051825114610846576040517f08c379a000000000000000000000000000000000000000000000000000000000815260206004820152603560248201527f45524331313535235f7361666542617463685472616e7366657246726f6d3a2060448201527f494e56414c49445f4152524159535f4c454e47544800000000000000000000006064820152608401610314565b815160005b81811015610a66576108e783828151811061086857610868611512565b60200260200101516000808973ffffffffffffffffffffffffffffffffffffffff1673ffffffffffffffffffffffffffffffffffffffff16815260200190815260200160002060008785815181106108c2576108c2611512565b6020026020010151815260200190815260200160002054610f1390919063ffffffff16565b6000808873ffffffffffffffffffffffffffffffffffffffff1673ffffffffffffffffffffffffffffffffffffffff168152602001908152602001600020600086848151811061093957610939611512565b60200260200101518152602001908152602001600020819055506109e783828151811061096857610968611512565b60200260200101516000808873ffffffffffffffffffffffffffffffffffffffff1673ffffffffffffffffffffffffffffffffffffffff16815260200190815260200160002060008785815181106109c2576109c2611512565b6020026020010151815260200190815260200160002054610f9390919063ffffffff16565b6000808773ffffffffffffffffffffffffffffffffffffffff1673ffffffffffffffffffffffffffffffffffffffff1681526020019081526020016000206000868481518110610a3957610a39611512565b60200260200101518152602001908152602001600020819055508080610a5e90611570565b91505061084b565b508373ffffffffffffffffffffffffffffffffffffffff168573ffffffffffffffffffffffffffffffffffffffff163373ffffffffffffffffffffffffffffffffffffffff167f4a39dc06d4c0dbc64b70af90fd698a233a518aa5d07e595d983b8c0526c8f7fb8686604051610add9291906115a9565b60405180910390a45050505050565b610b0b8573ffffffffffffffffffffffffffffffffffffffff16611013565b15610c7c5760008573ffffffffffffffffffffffffffffffffffffffff1663bc197c8184338a8989886040518763ffffffff1660e01b8152600401610b54959493929190611642565b602060405180830381600088803b158015610b6e57600080fd5b5087f1158015610b82573d6000803e3d6000fd5b50505050506040513d601f19601f82011682018060405250810190610ba791906116ad565b90507fffffffff0000000000000000000000000000000000000000000000000000000081167fbc197c810000000000000000000000000000000000000000000000000000000014610c7a576040517f08c379a000000000000000000000000000000000000000000000000000000000815260206004820152603f60248201527f45524331313535235f63616c6c6f6e455243313135354261746368526563656960448201527f7665643a20494e56414c49445f4f4e5f524543454956455f4d455353414745006064820152608401610314565b505b505050505050565b73ffffffffffffffffffffffffffffffffffffffff8416600090815260208181526040808320858452909152902054610cbd9082610f13565b73ffffffffffffffffffffffffffffffffffffffff80861660009081526020818152604080832087845282528083209490945591861681528082528281208582529091522054610d0d9082610f93565b73ffffffffffffffffffffffffffffffffffffffff84811660008181526020818152604080832088845282529182902094909455805186815293840185905290929187169133917fc3d58168c5ae7397731d063d5bbf3d657854427343f4c083240f7aacaa2d0f62910160405180910390a450505050565b610da48573ffffffffffffffffffffffffffffffffffffffff16611013565b15610c7c5760008573ffffffffffffffffffffffffffffffffffffffff1663f23a6e6184338a8989886040518763ffffffff1660e01b8152600401610ded9594939291906116ca565b602060405180830381600088803b158015610e0757600080fd5b5087f1158015610e1b573d6000803e3d6000fd5b50505050506040513d601f19601f82011682018060405250810190610e4091906116ad565b90507fffffffff0000000000000000000000000000000000000000000000000000000081167ff23a6e610000000000000000000000000000000000000000000000000000000014610c7a576040517f08c379a000000000000000000000000000000000000000000000000000000000815260206004820152603a60248201527f45524331313535235f63616c6c6f6e4552433131353552656365697665643a2060448201527f494e56414c49445f4f4e5f524543454956455f4d4553534147450000000000006064820152608401610314565b600082821115610f7f576040517f08c379a000000000000000000000000000000000000000000000000000000000815260206004820152601760248201527f536166654d617468237375623a20554e444552464c4f570000000000000000006044820152606401610314565b6000610f8b838561171a565b949350505050565b600080610fa08385611731565b90508381101561100c576040517f08c379a000000000000000000000000000000000000000000000000000000000815260206004820152601660248201527f536166654d617468236164643a204f564552464c4f57000000000000000000006044820152606401610314565b9392505050565b6000813f801580159061100c57507fc5d2460186f7233c927e7db2dcc703c0e500b653ca82273b7bfad8045d85a470141592915050565b803573ffffffffffffffffffffffffffffffffffffffff8116811461106e57600080fd5b919050565b6000806040838503121561108657600080fd5b61108f8361104a565b946020939093013593505050565b7fffffffff00000000000000000000000000000000000000000000000000000000811681146110cb57600080fd5b50565b6000602082840312156110e057600080fd5b813561100c8161109d565b7f4e487b7100000000000000000000000000000000000000000000000000000000600052604160045260246000fd5b604051601f82017fffffffffffffffffffffffffffffffffffffffffffffffffffffffffffffffe016810167ffffffffffffffff81118282101715611161576111616110eb565b604052919050565b600067ffffffffffffffff821115611183576111836110eb565b5060051b60200190565b600082601f83011261119e57600080fd5b813560206111b36111ae83611169565b61111a565b82815260059290921b840181019181810190868411156111d257600080fd5b8286015b848110156111ed57803583529183019183016111d6565b509695505050505050565b600082601f83011261120957600080fd5b813567ffffffffffffffff811115611223576112236110eb565b61125460207fffffffffffffffffffffffffffffffffffffffffffffffffffffffffffffffe0601f8401160161111a565b81815284602083860101111561126957600080fd5b816020850160208301376000918101602001919091529392505050565b600080600080600060a0868803121561129e57600080fd5b6112a78661104a565b94506112b56020870161104a565b9350604086013567ffffffffffffffff808211156112d257600080fd5b6112de89838a0161118d565b945060608801359150808211156112f457600080fd5b61130089838a0161118d565b9350608088013591508082111561131657600080fd5b50611323888289016111f8565b9150509295509295909350565b6000806040838503121561134357600080fd5b823567ffffffffffffffff8082111561135b57600080fd5b818501915085601f83011261136f57600080fd5b8135602061137f6111ae83611169565b82815260059290921b8401810191818101908984111561139e57600080fd5b948201945b838610156113c3576113b48661104a565b825294820194908201906113a3565b965050860135925050808211156113d957600080fd5b506113e68582860161118d565b9150509250929050565b600081518084526020808501945080840160005b8381101561142057815187529582019590820190600101611404565b509495945050505050565b60208152600061100c60208301846113f0565b6000806040838503121561145157600080fd5b61145a8361104a565b91506020830135801515811461146f57600080fd5b809150509250929050565b6000806040838503121561148d57600080fd5b6114968361104a565b91506114a46020840161104a565b90509250929050565b600080600080600060a086880312156114c557600080fd5b6114ce8661104a565b94506114dc6020870161104a565b93506040860135925060608601359150608086013567ffffffffffffffff81111561150657600080fd5b611323888289016111f8565b7f4e487b7100000000000000000000000000000000000000000000000000000000600052603260045260246000fd5b7f4e487b7100000000000000000000000000000000000000000000000000000000600052601160045260246000fd5b60007fffffffffffffffffffffffffffffffffffffffffffffffffffffffffffffffff8214156115a2576115a2611541565b5060010190565b6040815260006115bc60408301856113f0565b82810360208401526115ce81856113f0565b95945050505050565b6000815180845260005b818110156115fd576020818501810151868301820152016115e1565b8181111561160f576000602083870101525b50601f017fffffffffffffffffffffffffffffffffffffffffffffffffffffffffffffffe0169290920160200192915050565b600073ffffffffffffffffffffffffffffffffffffffff808816835280871660208401525060a0604083015261167b60a08301866113f0565b828103606084015261168d81866113f0565b905082810360808401526116a181856115d7565b98975050505050505050565b6000602082840312156116bf57600080fd5b815161100c8161109d565b600073ffffffffffffffffffffffffffffffffffffffff808816835280871660208401525084604083015283606083015260a0608083015261170f60a08301846115d7565b979650505050505050565b60008282101561172c5761172c611541565b500390565b6000821982111561174457611744611541565b50019056fea2646970667358221220dae56f4b58fe779594e0e1e0a37b1654ed5da6c8021ac062baefad09fabf460c64736f6c63430008090033",
  "linkReferences": {},
  "deployedLinkReferences": {}
}