{
  "_format": "hh-sol-artifact-1",
  "contractName": "ERC1155MetaPackedBalance",
  "sourceName": "contracts/tokens/ERC1155PackedBalance/ERC1155MetaPackedBalance.sol",
  "abi": [
    {
      "anonymous": false,
      "inputs": [
        {
          "indexed": true,
          "internalType": "address",
          "name": "_owner",
          "type": "address"
        },
        {
          "indexed": true,
          "internalType": "address",
          "name": "_operator",
          "type": "address"
        },
        {
          "indexed": false,
          "internalType": "bool",
          "name": "_approved",
          "type": "bool"
        }
      ],
      "name": "ApprovalForAll",
      "type": "event"
    },
    {
      "anonymous": false,
      "inputs": [
        {
          "indexed": true,
          "internalType": "address",
          "name": "signer",
          "type": "address"
        },
        {
          "indexed": false,
          "internalType": "uint256",
          "name": "newNonce",
          "type": "uint256"
        }
      ],
      "name": "NonceChange",
      "type": "event"
    },
    {
      "anonymous": false,
      "inputs": [
        {
          "indexed": true,
          "internalType": "address",
          "name": "_operator",
          "type": "address"
        },
        {
          "indexed": true,
          "internalType": "address",
          "name": "_from",
          "type": "address"
        },
        {
          "indexed": true,
          "internalType": "address",
          "name": "_to",
          "type": "address"
        },
        {
          "indexed": false,
          "internalType": "uint256[]",
          "name": "_ids",
          "type": "uint256[]"
        },
        {
          "indexed": false,
          "internalType": "uint256[]",
          "name": "_amounts",
          "type": "uint256[]"
        }
      ],
      "name": "TransferBatch",
      "type": "event"
    },
    {
      "anonymous": false,
      "inputs": [
        {
          "indexed": true,
          "internalType": "address",
          "name": "_operator",
          "type": "address"
        },
        {
          "indexed": true,
          "internalType": "address",
          "name": "_from",
          "type": "address"
        },
        {
          "indexed": true,
          "internalType": "address",
          "name": "_to",
          "type": "address"
        },
        {
          "indexed": false,
          "internalType": "uint256",
          "name": "_id",
          "type": "uint256"
        },
        {
          "indexed": false,
          "internalType": "uint256",
          "name": "_amount",
          "type": "uint256"
        }
      ],
      "name": "TransferSingle",
      "type": "event"
    },
    {
      "inputs": [
        {
          "internalType": "address",
          "name": "_owner",
          "type": "address"
        },
        {
          "internalType": "uint256",
          "name": "_id",
          "type": "uint256"
        }
      ],
      "name": "balanceOf",
      "outputs": [
        {
          "internalType": "uint256",
          "name": "",
          "type": "uint256"
        }
      ],
      "stateMutability": "view",
      "type": "function"
    },
    {
      "inputs": [
        {
          "internalType": "address[]",
          "name": "_owners",
          "type": "address[]"
        },
        {
          "internalType": "uint256[]",
          "name": "_ids",
          "type": "uint256[]"
        }
      ],
      "name": "balanceOfBatch",
      "outputs": [
        {
          "internalType": "uint256[]",
          "name": "",
          "type": "uint256[]"
        }
      ],
      "stateMutability": "view",
      "type": "function"
    },
    {
      "inputs": [
        {
          "internalType": "uint256",
          "name": "_id",
          "type": "uint256"
        }
      ],
      "name": "getIDBinIndex",
      "outputs": [
        {
          "internalType": "uint256",
          "name": "bin",
          "type": "uint256"
        },
        {
          "internalType": "uint256",
          "name": "index",
          "type": "uint256"
        }
      ],
      "stateMutability": "pure",
      "type": "function"
    },
    {
      "inputs": [
        {
          "internalType": "address",
          "name": "_signer",
          "type": "address"
        }
      ],
      "name": "getNonce",
      "outputs": [
        {
          "internalType": "uint256",
          "name": "nonce",
          "type": "uint256"
        }
      ],
      "stateMutability": "view",
      "type": "function"
    },
    {
      "inputs": [
        {
          "internalType": "uint256",
          "name": "_binValues",
          "type": "uint256"
        },
        {
          "internalType": "uint256",
          "name": "_index",
          "type": "uint256"
        }
      ],
      "name": "getValueInBin",
      "outputs": [
        {
          "internalType": "uint256",
          "name": "",
          "type": "uint256"
        }
      ],
      "stateMutability": "pure",
      "type": "function"
    },
    {
      "inputs": [
        {
          "internalType": "address",
          "name": "_owner",
          "type": "address"
        },
        {
          "internalType": "address",
          "name": "_operator",
          "type": "address"
        }
      ],
      "name": "isApprovedForAll",
      "outputs": [
        {
          "internalType": "bool",
          "name": "isOperator",
          "type": "bool"
        }
      ],
      "stateMutability": "view",
      "type": "function"
    },
    {
      "inputs": [
        {
          "internalType": "address",
          "name": "_signerAddress",
          "type": "address"
        },
        {
          "internalType": "bytes32",
          "name": "_hash",
          "type": "bytes32"
        },
        {
          "internalType": "bytes",
          "name": "_data",
          "type": "bytes"
        },
        {
          "internalType": "bytes",
          "name": "_sig",
          "type": "bytes"
        }
      ],
      "name": "isValidSignature",
      "outputs": [
        {
          "internalType": "bool",
          "name": "isValid",
          "type": "bool"
        }
      ],
      "stateMutability": "view",
      "type": "function"
    },
    {
      "inputs": [
        {
          "internalType": "address",
          "name": "_from",
          "type": "address"
        },
        {
          "internalType": "address",
          "name": "_to",
          "type": "address"
        },
        {
          "internalType": "uint256[]",
          "name": "_ids",
          "type": "uint256[]"
        },
        {
          "internalType": "uint256[]",
          "name": "_amounts",
          "type": "uint256[]"
        },
        {
          "internalType": "bool",
          "name": "_isGasFee",
          "type": "bool"
        },
        {
          "internalType": "bytes",
          "name": "_data",
          "type": "bytes"
        }
      ],
      "name": "metaSafeBatchTransferFrom",
      "outputs": [],
      "stateMutability": "nonpayable",
      "type": "function"
    },
    {
      "inputs": [
        {
          "internalType": "address",
          "name": "_from",
          "type": "address"
        },
        {
          "internalType": "address",
          "name": "_to",
          "type": "address"
        },
        {
          "internalType": "uint256",
          "name": "_id",
          "type": "uint256"
        },
        {
          "internalType": "uint256",
          "name": "_amount",
          "type": "uint256"
        },
        {
          "internalType": "bool",
          "name": "_isGasFee",
          "type": "bool"
        },
        {
          "internalType": "bytes",
          "name": "_data",
          "type": "bytes"
        }
      ],
      "name": "metaSafeTransferFrom",
      "outputs": [],
      "stateMutability": "nonpayable",
      "type": "function"
    },
    {
      "inputs": [
        {
          "internalType": "address",
          "name": "_owner",
          "type": "address"
        },
        {
          "internalType": "address",
          "name": "_operator",
          "type": "address"
        },
        {
          "internalType": "bool",
          "name": "_approved",
          "type": "bool"
        },
        {
          "internalType": "bool",
          "name": "_isGasFee",
          "type": "bool"
        },
        {
          "internalType": "bytes",
          "name": "_data",
          "type": "bytes"
        }
      ],
      "name": "metaSetApprovalForAll",
      "outputs": [],
      "stateMutability": "nonpayable",
      "type": "function"
    },
    {
      "inputs": [
        {
          "internalType": "address",
          "name": "_from",
          "type": "address"
        },
        {
          "internalType": "address",
          "name": "_to",
          "type": "address"
        },
        {
          "internalType": "uint256[]",
          "name": "_ids",
          "type": "uint256[]"
        },
        {
          "internalType": "uint256[]",
          "name": "_amounts",
          "type": "uint256[]"
        },
        {
          "internalType": "bytes",
          "name": "_data",
          "type": "bytes"
        }
      ],
      "name": "safeBatchTransferFrom",
      "outputs": [],
      "stateMutability": "nonpayable",
      "type": "function"
    },
    {
      "inputs": [
        {
          "internalType": "address",
          "name": "_from",
          "type": "address"
        },
        {
          "internalType": "address",
          "name": "_to",
          "type": "address"
        },
        {
          "internalType": "uint256",
          "name": "_id",
          "type": "uint256"
        },
        {
          "internalType": "uint256",
          "name": "_amount",
          "type": "uint256"
        },
        {
          "internalType": "bytes",
          "name": "_data",
          "type": "bytes"
        }
      ],
      "name": "safeTransferFrom",
      "outputs": [],
      "stateMutability": "nonpayable",
      "type": "function"
    },
    {
      "inputs": [
        {
          "internalType": "address",
          "name": "_operator",
          "type": "address"
        },
        {
          "internalType": "bool",
          "name": "_approved",
          "type": "bool"
        }
      ],
      "name": "setApprovalForAll",
      "outputs": [],
      "stateMutability": "nonpayable",
      "type": "function"
    },
    {
      "inputs": [
        {
          "internalType": "bytes4",
          "name": "_interfaceID",
          "type": "bytes4"
        }
      ],
      "name": "supportsInterface",
      "outputs": [
        {
          "internalType": "bool",
          "name": "",
          "type": "bool"
        }
      ],
      "stateMutability": "pure",
      "type": "function"
    }
  ],
  "bytecode": "0x608060405234801561001057600080fd5b50613c24806100206000396000f3fe608060405234801561001057600080fd5b50600436106100e95760003560e01c8063ce0b514b1161008c578063eaec5f8111610066578063eaec5f811461024c578063f242432a1461025f578063f5d4c82014610272578063fa4e12d71461028557600080fd5b8063ce0b514b146101c8578063db90e83c146101db578063e985e9c51461020357600080fd5b80632eb2c2d6116100c85780632eb2c2d61461016d5780634e1273f414610182578063a22cb465146101a2578063a3d4926e146101b557600080fd5b8062fdd58e146100ee57806301ffc9a7146101145780632d0335ab14610137575b600080fd5b6101016100fc366004612dac565b610298565b6040519081526020015b60405180910390f35b610127610122366004612e06565b6102ef565b604051901515815260200161010b565b610101610145366004612e23565b73ffffffffffffffffffffffffffffffffffffffff1660009081526002602052604090205490565b61018061017b366004612fe4565b61038d565b005b610195610190366004613092565b610536565b60405161010b919061318f565b6101806101b03660046131b0565b610830565b6101806101c33660046131e9565b6108c7565b6101806101d63660046132aa565b610b1f565b6101ee6101e9366004613324565b610c8f565b6040805192835260208301919091520161010b565b61012761021136600461333d565b73ffffffffffffffffffffffffffffffffffffffff918216600090815260016020908152604080832093909416825291909152205460ff1690565b61010161025a36600461336b565b610cc9565b61018061026d36600461338d565b610cf7565b6101806102803660046133f6565b610e94565b610127610293366004613465565b610feb565b60008060006102a684610c8f565b73ffffffffffffffffffffffffffffffffffffffff871660009081526020818152604080832085845290915290205491935091506102e49082610cc9565b925050505b92915050565b60007fffffffff0000000000000000000000000000000000000000000000000000000082167fd9b67a2600000000000000000000000000000000000000000000000000000000141561034357506001919050565b7f01ffc9a7000000000000000000000000000000000000000000000000000000007fffffffff000000000000000000000000000000000000000000000000000000008316146102e9565b3373ffffffffffffffffffffffffffffffffffffffff861614806103e1575073ffffffffffffffffffffffffffffffffffffffff8516600090815260016020908152604080832033845290915290205460ff165b610472576040517f08c379a000000000000000000000000000000000000000000000000000000000815260206004820152603c60248201527f455243313135355061636b656442616c616e636523736166654261746368547260448201527f616e7366657246726f6d3a20494e56414c49445f4f50455241544f520000000060648201526084015b60405180910390fd5b73ffffffffffffffffffffffffffffffffffffffff8416610515576040517f08c379a000000000000000000000000000000000000000000000000000000000815260206004820152603d60248201527f455243313135355061636b656442616c616e636523736166654261746368547260448201527f616e7366657246726f6d3a20494e56414c49445f524543495049454e540000006064820152608401610469565b61052185858585611857565b61052f858585855a86611cba565b5050505050565b815181516060919081146105cc576040517f08c379a000000000000000000000000000000000000000000000000000000000815260206004820152603960248201527f455243313135355061636b656442616c616e63652362616c616e63654f66426160448201527f7463683a20494e56414c49445f41525241595f4c454e475448000000000000006064820152608401610469565b6000806105f2856000815181106105e5576105e56134e5565b6020026020010151610c8f565b9150915060008060008860008151811061060e5761060e6134e5565b602002602001015173ffffffffffffffffffffffffffffffffffffffff1673ffffffffffffffffffffffffffffffffffffffff1681526020019081526020016000206000848152602001908152602001600020549050600083905060008567ffffffffffffffff81111561068457610684612e40565b6040519080825280602002602001820160405280156106ad578160200160208202803683370190505b5090506106ba8385610cc9565b816000815181106106cd576106cd6134e5565b602090810291909101015260015b86811015610823576106f88982815181106105e5576105e56134e5565b909650945082861415806107765750898181518110610719576107196134e5565b602002602001015173ffffffffffffffffffffffffffffffffffffffff168a6001836107459190613543565b81518110610755576107556134e5565b602002602001015173ffffffffffffffffffffffffffffffffffffffff1614155b156107ea576000808b8381518110610790576107906134e5565b602002602001015173ffffffffffffffffffffffffffffffffffffffff1673ffffffffffffffffffffffffffffffffffffffff16815260200190815260200160002060008781526020019081526020016000205493508592505b6107f48486610cc9565b828281518110610806576108066134e5565b60209081029190910101528061081b8161355a565b9150506106db565b5098975050505050505050565b33600081815260016020908152604080832073ffffffffffffffffffffffffffffffffffffffff87168085529083529281902080547fffffffffffffffffffffffffffffffffffffffffffffffffffffffffffffff001686151590811790915590519081529192917f17307eab39ab6107e8899845ad3d59bd9653f200f220920489ca2b5937696c31910160405180910390a35050565b73ffffffffffffffffffffffffffffffffffffffff8516610990576040517f08c379a000000000000000000000000000000000000000000000000000000000815260206004820152604560248201527f455243313135354d6574615061636b656442616c616e6365236d65746153616660448201527f6542617463685472616e7366657246726f6d3a20494e56414c49445f5245434960648201527f5049454e54000000000000000000000000000000000000000000000000000000608482015260a401610469565b60606109d360405180608001604052806000815260200160008152602001600073ffffffffffffffffffffffffffffffffffffffff168152602001606081525090565b6000610ab589857fa3d4926e8cf8fe8e020cd29f514c256bc2eec62aa2337e415f1a33a4828af5a060001b8c8c8c604051602001610a119190613593565b604051602081830303815290604052805190602001208c604051602001610a389190613593565b604051602081830303815290604052805190602001208c610a5a576000610a5d565b60015b60408051602081019790975273ffffffffffffffffffffffffffffffffffffffff95861690870152939092166060850152608084015260a083015260c082015260e0015b604051602081830303815290604052611e6e565b9050610ac389898989611857565b8415610b065780806020019051810190610add91906136cd565b8094508193505050610af789898989866020015188611cba565b610b018983612100565b610b14565b610b14898989895a86611cba565b505050505050505050565b73ffffffffffffffffffffffffffffffffffffffff8516610bc457604080517f08c379a00000000000000000000000000000000000000000000000000000000081526020600482015260248101919091527f455243313135354d6574615061636b656442616c616e6365236d65746153616660448201527f655472616e7366657246726f6d3a20494e56414c49445f524543495049454e546064820152608401610469565b6060610c0760405180608001604052806000815260200160008152602001600073ffffffffffffffffffffffffffffffffffffffff168152602001606081525090565b6000610c3f89857fce0b514b3931bdbe4d5d44e4f035afe7113767b7db71949271f6a62d9c60f558828c8c8c8c610a5a576000610a5d565b9050610c4d89898989612484565b8415610c815780806020019051810190610c6791906136cd565b8094508193505050610af7898989898660200151886124fc565b610b14898989895a866124fc565b600080610c9f6020610100613756565b610ca99084613756565b9150610cb86020610100613756565b610cc2908461376a565b9050915091565b600080610cdc6001640100000000613543565b90506000610ceb84602061377e565b9490941c169392505050565b3373ffffffffffffffffffffffffffffffffffffffff86161480610d4b575073ffffffffffffffffffffffffffffffffffffffff8516600090815260016020908152604080832033845290915290205460ff165b610dd7576040517f08c379a000000000000000000000000000000000000000000000000000000000815260206004820152603760248201527f455243313135355061636b656442616c616e636523736166655472616e73666560448201527f7246726f6d3a20494e56414c49445f4f50455241544f520000000000000000006064820152608401610469565b73ffffffffffffffffffffffffffffffffffffffff8416610e7a576040517f08c379a000000000000000000000000000000000000000000000000000000000815260206004820152603860248201527f455243313135355061636b656442616c616e636523736166655472616e73666560448201527f7246726f6d3a20494e56414c49445f524543495049454e5400000000000000006064820152608401610469565b610e8685858585612484565b61052f858585855a866124fc565b6000610f1f86837ff5d4c820494c8595de274c7ff619bead38aac4fbc3d143b5bf956aa4b84fa524828989610eca576000610ecd565b60015b89610ed9576000610edc565b60015b60408051602081019690965273ffffffffffffffffffffffffffffffffffffffff94851690860152929091166060840152608083015260a082015260c001610aa1565b73ffffffffffffffffffffffffffffffffffffffff8781166000818152600160209081526040808320948b168084529482529182902080547fffffffffffffffffffffffffffffffffffffffffffffffffffffffffffffff00168a15159081179091559151918252939450919290917f17307eab39ab6107e8899845ad3d59bd9653f200f220920489ca2b5937696c31910160405180910390a38215610fe357600081806020019051810190610fd591906137bb565b9050610fe18782612100565b505b505050505050565b6000808251116110a3576040517f08c379a000000000000000000000000000000000000000000000000000000000815260206004820152604360248201527f5369676e617475726556616c696461746f7223697356616c69645369676e617460448201527f7572653a204c454e4754485f475245415445525f5448414e5f305f524551554960648201527f5245440000000000000000000000000000000000000000000000000000000000608482015260a401610469565b73ffffffffffffffffffffffffffffffffffffffff8516611146576040517f08c379a000000000000000000000000000000000000000000000000000000000815260206004820152603360248201527f5369676e617475726556616c696461746f7223697356616c69645369676e617460448201527f7572653a20494e56414c49445f5349474e4552000000000000000000000000006064820152608401610469565b6000611151836126b0565b60f81c9050600581106111e6576040517f08c379a000000000000000000000000000000000000000000000000000000000815260206004820152603a60248201527f5369676e617475726556616c696461746f7223697356616c69645369676e617460448201527f7572653a20554e535550504f525445445f5349474e41545552450000000000006064820152608401610469565b60008160ff1660058111156111fd576111fd6137f0565b9050600080808080856005811115611217576112176137f0565b14156112a5576040517f08c379a000000000000000000000000000000000000000000000000000000000815260206004820152603660248201527f5369676e617475726556616c696461746f7223697356616c69645369676e617460448201527f7572653a20494c4c4547414c5f5349474e4154555245000000000000000000006064820152608401610469565b60018560058111156112b9576112b96137f0565b141561142c578751606114611350576040517f08c379a000000000000000000000000000000000000000000000000000000000815260206004820152603760248201527f5369676e617475726556616c696461746f7223697356616c69645369676e617460448201527f7572653a204c454e4754485f39375f52455155495245440000000000000000006064820152608401610469565b61135b8860006127b3565b92506113688860206127b3565b91508760408151811061137d5761137d6134e5565b0160209081015160408051600081529283018082528d905260f89190911c9082018190526060820185905260808201849052945060019060a0015b6020604051602081039080840390855afa1580156113da573d6000803e3d6000fd5b50506040517fffffffffffffffffffffffffffffffffffffffffffffffffffffffffffffffe0015173ffffffffffffffffffffffffffffffffffffffff8d8116911614975061184f9650505050505050565b6002856005811115611440576114406137f0565b14156115a75787516061146114d7576040517f08c379a000000000000000000000000000000000000000000000000000000000815260206004820152603760248201527f5369676e617475726556616c696461746f7223697356616c69645369676e617460448201527f7572653a204c454e4754485f39375f52455155495245440000000000000000006064820152608401610469565b6114e28860006127b3565b92506114ef8860206127b3565b915087604081518110611504576115046134e5565b016020908101516040517f19457468657265756d205369676e6564204d6573736167653a0a33320000000092810192909252603c82018c905260f81c9450600190605c01604080517fffffffffffffffffffffffffffffffffffffffffffffffffffffffffffffffe08184030181528282528051602091820120600084529083018083525260ff871690820152606081018590526080810184905260a0016113b8565b60038560058111156115bb576115bb6137f0565b14156116b7576040517f20c13b0b00000000000000000000000000000000000000000000000000000000815273ffffffffffffffffffffffffffffffffffffffff8c16906320c13b0b90611615908c908c90600401613869565b60206040518083038186803b15801561162d57600080fd5b505afa158015611641573d6000803e3d6000fd5b505050506040513d601f19601f820116820180604052508101906116659190613897565b7fffffffff00000000000000000000000000000000000000000000000000000000167f20c13b0b0000000000000000000000000000000000000000000000000000000014965061184f95505050505050565b60048560058111156116cb576116cb6137f0565b14156117c7576040517f1626ba7e00000000000000000000000000000000000000000000000000000000815273ffffffffffffffffffffffffffffffffffffffff8c1690631626ba7e90611725908d908c906004016138b4565b60206040518083038186803b15801561173d57600080fd5b505afa158015611751573d6000803e3d6000fd5b505050506040513d601f19601f820116820180604052508101906117759190613897565b7fffffffff00000000000000000000000000000000000000000000000000000000167f1626ba7e0000000000000000000000000000000000000000000000000000000014965061184f95505050505050565b6040517f08c379a000000000000000000000000000000000000000000000000000000000815260206004820152603a60248201527f5369676e617475726556616c696461746f7223697356616c69645369676e617460448201527f7572653a20554e535550504f525445445f5349474e41545552450000000000006064820152608401610469565b949350505050565b81518151811461190f576040517f08c379a000000000000000000000000000000000000000000000000000000000815260206004820152604260248201527f455243313135355061636b656442616c616e6365235f7361666542617463685460448201527f72616e7366657246726f6d3a20494e56414c49445f4152524159535f4c454e4760648201527f5448000000000000000000000000000000000000000000000000000000000000608482015260a401610469565b8373ffffffffffffffffffffffffffffffffffffffff168573ffffffffffffffffffffffffffffffffffffffff161415801561194b5750600081115b15611b4b57600080611969856000815181106105e5576105e56134e5565b73ffffffffffffffffffffffffffffffffffffffff89166000908152602081815260408083208584529091528120548751939550919350916119c791908490889085906119b8576119b86134e5565b60200260200101516001612866565b73ffffffffffffffffffffffffffffffffffffffff881660009081526020818152604080832087845290915281205487519293509091611a239190859089908590611a1457611a146134e5565b60200260200101516000612866565b90508360015b86811015611af957611a468982815181106105e5576105e56134e5565b9096509450818614611ab55773ffffffffffffffffffffffffffffffffffffffff8b811660009081526020818152604080832086845280835281842098909855928d16825281815282822094825284815282822095909555878152948452808520549290935291909220549084905b611acc84868a84815181106119b8576119b86134e5565b9350611ae583868a8481518110611a1457611a146134e5565b925080611af18161355a565b915050611a29565b505073ffffffffffffffffffffffffffffffffffffffff808a16600090815260208181526040808320888452825280832095909555918a16815280825283812095815294905292209190915550611c35565b60005b81811015611c3357828181518110611b6857611b686134e5565b6020026020010151611b9387868481518110611b8657611b866134e5565b6020026020010151610298565b1015611c21576040517f08c379a000000000000000000000000000000000000000000000000000000000815260206004820152603660248201527f455243313135355061636b656442616c616e6365235f7361666542617463685460448201527f72616e7366657246726f6d3a20554e444552464c4f57000000000000000000006064820152608401610469565b80611c2b8161355a565b915050611b4e565b505b8373ffffffffffffffffffffffffffffffffffffffff168573ffffffffffffffffffffffffffffffffffffffff163373ffffffffffffffffffffffffffffffffffffffff167f4a39dc06d4c0dbc64b70af90fd698a233a518aa5d07e595d983b8c0526c8f7fb8686604051611cab9291906138cd565b60405180910390a45050505050565b611cd98573ffffffffffffffffffffffffffffffffffffffff16612bf3565b15610fe35760008573ffffffffffffffffffffffffffffffffffffffff1663bc197c8184338a8989886040518763ffffffff1660e01b8152600401611d229594939291906138f2565b602060405180830381600088803b158015611d3c57600080fd5b5087f1158015611d50573d6000803e3d6000fd5b50505050506040513d601f19601f82011682018060405250810190611d759190613897565b90507fffffffff0000000000000000000000000000000000000000000000000000000081167fbc197c810000000000000000000000000000000000000000000000000000000014610fe1576040517f08c379a000000000000000000000000000000000000000000000000000000000815260206004820152604c60248201527f455243313135355061636b656442616c616e6365235f63616c6c6f6e4552433160448201527f313535426174636852656365697665643a20494e56414c49445f4f4e5f52454360648201527f454956455f4d4553534147450000000000000000000000000000000000000000608482015260a401610469565b60608083806020019051810190611e85919061395d565b73ffffffffffffffffffffffffffffffffffffffff871660009081526002602052604081205491945091925090611ebd8360416127b3565b9050818110801590611ed85750611ed5826064613994565b81105b611f64576040517f08c379a000000000000000000000000000000000000000000000000000000000815260206004820152603c60248201527f455243313135354d6574615061636b656442616c616e6365235f7369676e617460448201527f75726556616c69646174696f6e3a20494e56414c49445f4e4f4e4345000000006064820152608401610469565b6000611fa086838780519060200120604051602001611f85939291906139ac565b60405160208183030381529060405280519060200120612c2d565b90506000868387604051602001611fb9939291906139d3565b604080517fffffffffffffffffffffffffffffffffffffffffffffffffffffffffffffffe08184030181529190529050611ff4836001613994565b73ffffffffffffffffffffffffffffffffffffffff8a166000818152600260205260409020919091557fb861b7bdbe611a846ab271b8d2810391bc8b5a968f390c322438ecab66bccf59612049856001613994565b60405190815260200160405180910390a261206689838388610feb565b6120f457604080517f08c379a00000000000000000000000000000000000000000000000000000000081526020600482015260248101919091527f455243313135354d6574615061636b656442616c616e6365235f7369676e617460448201527f75726556616c69646174696f6e3a20494e56414c49445f5349474e41545552456064820152608401610469565b50505050509392505050565b600061210f82606001516126b0565b60f81c9050600281106121a4576040517f08c379a000000000000000000000000000000000000000000000000000000000815260206004820152603b60248201527f455243313135354d6574615061636b656442616c616e6365235f7472616e736660448201527f65724761734665653a20554e535550504f525445445f544f4b454e00000000006064820152608401610469565b60008160ff1660028111156121bb576121bb6137f0565b835160408501519192506000918291829173ffffffffffffffffffffffffffffffffffffffff16156121f15786604001516121f3565b335b92506000856002811115612209576122096137f0565b14156123225786606001518060200190518101906122279190613a0a565b909450915073ffffffffffffffffffffffffffffffffffffffff84163014156122785761225688848484612484565b6122738884845a85604051806020016040528060008152506124fc565b61247a565b6040517ff242432a00000000000000000000000000000000000000000000000000000000815273ffffffffffffffffffffffffffffffffffffffff89811660048301528481166024830152604482018490526064820183905260a06084830152600060a483015285169063f242432a9060c401600060405180830381600087803b15801561230557600080fd5b505af1158015612319573d6000803e3d6000fd5b5050505061247a565b866060015180602001905181019061233a9190613a38565b6040517f23b872dd00000000000000000000000000000000000000000000000000000000815273ffffffffffffffffffffffffffffffffffffffff8a81166004830152858116602483015260448201849052919550908516906323b872dd90606401602060405180830381600087803b1580156123b657600080fd5b505af11580156123ca573d6000803e3d6000fd5b505050506040513d601f19601f820116820180604052508101906123ee9190613a55565b61247a576040517f08c379a000000000000000000000000000000000000000000000000000000000815260206004820152603f60248201527f455243313135354d6574615061636b656442616c616e6365235f7472616e736660448201527f65724761734665653a2045524332305f5452414e534645525f4641494c4544006064820152608401610469565b5050505050505050565b6124918483836001612d00565b61249e8383836000612d00565b604080518381526020810183905273ffffffffffffffffffffffffffffffffffffffff808616929087169133917fc3d58168c5ae7397731d063d5bbf3d657854427343f4c083240f7aacaa2d0f62910160405180910390a450505050565b61251b8573ffffffffffffffffffffffffffffffffffffffff16612bf3565b15610fe35760008573ffffffffffffffffffffffffffffffffffffffff1663f23a6e6184338a8989886040518763ffffffff1660e01b8152600401612564959493929190613a72565b602060405180830381600088803b15801561257e57600080fd5b5087f1158015612592573d6000803e3d6000fd5b50505050506040513d601f19601f820116820180604052508101906125b79190613897565b90507fffffffff0000000000000000000000000000000000000000000000000000000081167ff23a6e610000000000000000000000000000000000000000000000000000000014610fe1576040517f08c379a000000000000000000000000000000000000000000000000000000000815260206004820152604760248201527f455243313135355061636b656442616c616e6365235f63616c6c6f6e4552433160448201527f31353552656365697665643a20494e56414c49445f4f4e5f524543454956455f60648201527f4d45535341474500000000000000000000000000000000000000000000000000608482015260a401610469565b600080825111612742576040517f08c379a000000000000000000000000000000000000000000000000000000000815260206004820152603760248201527f4c6962427974657323706f704c617374427974653a20475245415445525f544860448201527f414e5f5a45524f5f4c454e4754485f52455155495245440000000000000000006064820152608401610469565b81600183516127519190613543565b81518110612761576127616134e5565b016020015182517fffffffffffffffffffffffffffffffffffffffffffffffffffffffffffffffff01909252507fff000000000000000000000000000000000000000000000000000000000000001690565b60006127c0826020613994565b83511015612850576040517f08c379a000000000000000000000000000000000000000000000000000000000815260206004820152603c60248201527f4c696242797465732372656164427974657333323a20475245415445525f4f5260448201527f5f455155414c5f544f5f33325f4c454e4754485f5245515549524544000000006064820152608401610469565b61285b602083613994565b929092015192915050565b60008061287485602061377e565b905060006128886001640100000000613543565b9050600084600181111561289e5761289e6137f0565b14156129ee576128b085831b88613994565b925086831015612942576040517f08c379a000000000000000000000000000000000000000000000000000000000815260206004820152603260248201527f455243313135355061636b656442616c616e6365235f7669657755706461746560448201527f42696e56616c75653a204f564552464c4f5700000000000000000000000000006064820152608401610469565b61294e60206002613be2565b61295c8689851c8416613994565b106129e9576040517f08c379a000000000000000000000000000000000000000000000000000000000815260206004820152603260248201527f455243313135355061636b656442616c616e6365235f7669657755706461746560448201527f42696e56616c75653a204f564552464c4f5700000000000000000000000000006064820152608401610469565b612be9565b6001846001811115612a0257612a026137f0565b1415612b3b57612a1485831b88613543565b925086831115612aa6576040517f08c379a000000000000000000000000000000000000000000000000000000000815260206004820152603360248201527f455243313135355061636b656442616c616e6365235f7669657755706461746560448201527f42696e56616c75653a20554e444552464c4f57000000000000000000000000006064820152608401610469565b84818389901c1610156129e9576040517f08c379a000000000000000000000000000000000000000000000000000000000815260206004820152603360248201527f455243313135355061636b656442616c616e6365235f7669657755706461746560448201527f42696e56616c75653a20554e444552464c4f57000000000000000000000000006064820152608401610469565b6040517f08c379a000000000000000000000000000000000000000000000000000000000815260206004820152604560248201527f455243313135355061636b656442616c616e6365235f7669657755706461746560448201527f42696e56616c75653a20494e56414c49445f42494e5f57524954455f4f50455260648201527f4154494f4e000000000000000000000000000000000000000000000000000000608482015260a401610469565b5050949350505050565b6000813f8015801590612c2657507fc5d2460186f7233c927e7db2dcc703c0e500b653ca82273b7bfad8045d85a4708114155b9392505050565b60006040518060400160405280600281526020017f19010000000000000000000000000000000000000000000000000000000000008152507f035aff83d86937d35b32e04f0ddc6ff469290eef2f1b692d8a815c89404d474960001b30604051602001612cba92919091825273ffffffffffffffffffffffffffffffffffffffff16602082015260400190565b6040516020818303038152906040528051906020012083604051602001612ce3939291906139ac565b604051602081830303815290604052805190602001209050919050565b600080612d0c85610c8f565b73ffffffffffffffffffffffffffffffffffffffff88166000908152602081815260408083208584529091529020549193509150612d4c90828686612866565b73ffffffffffffffffffffffffffffffffffffffff909616600090815260208181526040808320948352939052919091209490945550505050565b73ffffffffffffffffffffffffffffffffffffffff81168114612da957600080fd5b50565b60008060408385031215612dbf57600080fd5b8235612dca81612d87565b946020939093013593505050565b7fffffffff0000000000000000000000000000000000000000000000000000000081168114612da957600080fd5b600060208284031215612e1857600080fd5b8135612c2681612dd8565b600060208284031215612e3557600080fd5b8135612c2681612d87565b7f4e487b7100000000000000000000000000000000000000000000000000000000600052604160045260246000fd5b604051601f82017fffffffffffffffffffffffffffffffffffffffffffffffffffffffffffffffe016810167ffffffffffffffff81118282101715612eb657612eb6612e40565b604052919050565b600067ffffffffffffffff821115612ed857612ed8612e40565b5060051b60200190565b600082601f830112612ef357600080fd5b81356020612f08612f0383612ebe565b612e6f565b82815260059290921b84018101918181019086841115612f2757600080fd5b8286015b84811015612f425780358352918301918301612f2b565b509695505050505050565b600067ffffffffffffffff821115612f6757612f67612e40565b50601f017fffffffffffffffffffffffffffffffffffffffffffffffffffffffffffffffe01660200190565b600082601f830112612fa457600080fd5b8135612fb2612f0382612f4d565b818152846020838601011115612fc757600080fd5b816020850160208301376000918101602001919091529392505050565b600080600080600060a08688031215612ffc57600080fd5b853561300781612d87565b9450602086013561301781612d87565b9350604086013567ffffffffffffffff8082111561303457600080fd5b61304089838a01612ee2565b9450606088013591508082111561305657600080fd5b61306289838a01612ee2565b9350608088013591508082111561307857600080fd5b5061308588828901612f93565b9150509295509295909350565b600080604083850312156130a557600080fd5b823567ffffffffffffffff808211156130bd57600080fd5b818501915085601f8301126130d157600080fd5b813560206130e1612f0383612ebe565b82815260059290921b8401810191818101908984111561310057600080fd5b948201945b8386101561312757853561311881612d87565b82529482019490820190613105565b9650508601359250508082111561313d57600080fd5b5061314a85828601612ee2565b9150509250929050565b600081518084526020808501945080840160005b8381101561318457815187529582019590820190600101613168565b509495945050505050565b602081526000612c266020830184613154565b8015158114612da957600080fd5b600080604083850312156131c357600080fd5b82356131ce81612d87565b915060208301356131de816131a2565b809150509250929050565b60008060008060008060c0878903121561320257600080fd5b863561320d81612d87565b9550602087013561321d81612d87565b9450604087013567ffffffffffffffff8082111561323a57600080fd5b6132468a838b01612ee2565b9550606089013591508082111561325c57600080fd5b6132688a838b01612ee2565b94506080890135915061327a826131a2565b90925060a0880135908082111561329057600080fd5b5061329d89828a01612f93565b9150509295509295509295565b60008060008060008060c087890312156132c357600080fd5b86356132ce81612d87565b955060208701356132de81612d87565b9450604087013593506060870135925060808701356132fc816131a2565b915060a087013567ffffffffffffffff81111561331857600080fd5b61329d89828a01612f93565b60006020828403121561333657600080fd5b5035919050565b6000806040838503121561335057600080fd5b823561335b81612d87565b915060208301356131de81612d87565b6000806040838503121561337e57600080fd5b50508035926020909101359150565b600080600080600060a086880312156133a557600080fd5b85356133b081612d87565b945060208601356133c081612d87565b93506040860135925060608601359150608086013567ffffffffffffffff8111156133ea57600080fd5b61308588828901612f93565b600080600080600060a0868803121561340e57600080fd5b853561341981612d87565b9450602086013561342981612d87565b93506040860135613439816131a2565b92506060860135613449816131a2565b9150608086013567ffffffffffffffff8111156133ea57600080fd5b6000806000806080858703121561347b57600080fd5b843561348681612d87565b935060208501359250604085013567ffffffffffffffff808211156134aa57600080fd5b6134b688838901612f93565b935060608701359150808211156134cc57600080fd5b506134d987828801612f93565b91505092959194509250565b7f4e487b7100000000000000000000000000000000000000000000000000000000600052603260045260246000fd5b7f4e487b7100000000000000000000000000000000000000000000000000000000600052601160045260246000fd5b60008282101561355557613555613514565b500390565b60007fffffffffffffffffffffffffffffffffffffffffffffffffffffffffffffffff82141561358c5761358c613514565b5060010190565b815160009082906020808601845b838110156135bd578151855293820193908201906001016135a1565b50929695505050505050565b60005b838110156135e45781810151838201526020016135cc565b838111156135f3576000848401525b50505050565b600082601f83011261360a57600080fd5b8151613618612f0382612f4d565b81815284602083860101111561362d57600080fd5b61184f8260208301602087016135c9565b60006080828403121561365057600080fd5b6040516080810167ffffffffffffffff828210818311171561367457613674612e40565b8160405282935084518352602085015160208401526040850151915061369982612d87565b81604084015260608501519150808211156136b357600080fd5b506136c0858286016135f9565b6060830152505092915050565b600080604083850312156136e057600080fd5b825167ffffffffffffffff808211156136f857600080fd5b6137048683870161363e565b9350602085015191508082111561371a57600080fd5b5061314a858286016135f9565b7f4e487b7100000000000000000000000000000000000000000000000000000000600052601260045260246000fd5b60008261376557613765613727565b500490565b60008261377957613779613727565b500690565b6000817fffffffffffffffffffffffffffffffffffffffffffffffffffffffffffffffff04831182151516156137b6576137b6613514565b500290565b6000602082840312156137cd57600080fd5b815167ffffffffffffffff8111156137e457600080fd5b61184f8482850161363e565b7f4e487b7100000000000000000000000000000000000000000000000000000000600052602160045260246000fd5b600081518084526138378160208601602086016135c9565b601f017fffffffffffffffffffffffffffffffffffffffffffffffffffffffffffffffe0169290920160200192915050565b60408152600061387c604083018561381f565b828103602084015261388e818561381f565b95945050505050565b6000602082840312156138a957600080fd5b8151612c2681612dd8565b82815260406020820152600061184f604083018461381f565b6040815260006138e06040830185613154565b828103602084015261388e8185613154565b600073ffffffffffffffffffffffffffffffffffffffff808816835280871660208401525060a0604083015261392b60a0830186613154565b828103606084015261393d8186613154565b90508281036080840152613951818561381f565b98975050505050505050565b6000806040838503121561397057600080fd5b825167ffffffffffffffff8082111561398857600080fd5b613704868387016135f9565b600082198211156139a7576139a7613514565b500190565b600084516139be8184602089016135c9565b91909101928352506020820152604001919050565b600084516139e58184602089016135c9565b820184815283516139fd8160208085019088016135c9565b0160200195945050505050565b60008060408385031215613a1d57600080fd5b8251613a2881612d87565b6020939093015192949293505050565b600060208284031215613a4a57600080fd5b8151612c2681612d87565b600060208284031215613a6757600080fd5b8151612c26816131a2565b600073ffffffffffffffffffffffffffffffffffffffff808816835280871660208401525084604083015283606083015260a06080830152613ab760a083018461381f565b979650505050505050565b600181815b80851115613b1b57817fffffffffffffffffffffffffffffffffffffffffffffffffffffffffffffffff04821115613b0157613b01613514565b80851615613b0e57918102915b93841c9390800290613ac7565b509250929050565b600082613b32575060016102e9565b81613b3f575060006102e9565b8160018114613b555760028114613b5f57613b7b565b60019150506102e9565b60ff841115613b7057613b70613514565b50506001821b6102e9565b5060208310610133831016604e8410600b8410161715613b9e575081810a6102e9565b613ba88383613ac2565b807fffffffffffffffffffffffffffffffffffffffffffffffffffffffffffffffff04821115613bda57613bda613514565b029392505050565b6000612c268383613b2356fea2646970667358221220e3458a97eaa12ffd941ae47a0893815bf58462d2d60b3fc90a2bd956578b288764736f6c63430008090033",
  "linkReferences": {},
  "deployedLinkReferences": {}
}