{
  "_format": "hh-sol-artifact-1",
  "contractName": "ERC1155MintBurnPackedBalanceMock",
  "sourceName": "contracts/mocks/ERC1155MintBurnPackedBalanceMock.sol",
  "abi": [
    {
      "inputs": [
        {
          "internalType": "string",
          "name": "_name",
          "type": "string"
        },
        {
          "internalType": "string",
          "name": "_baseURI",
          "type": "string"
        }
      ],
      "stateMutability": "nonpayable",
      "type": "constructor"
    },
    {
      "anonymous": false,
      "inputs": [
        {
          "indexed": true,
          "internalType": "address",
          "name": "_owner",
          "type": "address"
        },
        {
          "indexed": true,
          "internalType": "address",
          "name": "_operator",
          "type": "address"
        },
        {
          "indexed": false,
          "internalType": "bool",
          "name": "_approved",
          "type": "bool"
        }
      ],
      "name": "ApprovalForAll",
      "type": "event"
    },
    {
      "anonymous": false,
      "inputs": [
        {
          "indexed": true,
          "internalType": "address",
          "name": "_operator",
          "type": "address"
        },
        {
          "indexed": true,
          "internalType": "address",
          "name": "_from",
          "type": "address"
        },
        {
          "indexed": true,
          "internalType": "address",
          "name": "_to",
          "type": "address"
        },
        {
          "indexed": false,
          "internalType": "uint256[]",
          "name": "_ids",
          "type": "uint256[]"
        },
        {
          "indexed": false,
          "internalType": "uint256[]",
          "name": "_amounts",
          "type": "uint256[]"
        }
      ],
      "name": "TransferBatch",
      "type": "event"
    },
    {
      "anonymous": false,
      "inputs": [
        {
          "indexed": true,
          "internalType": "address",
          "name": "_operator",
          "type": "address"
        },
        {
          "indexed": true,
          "internalType": "address",
          "name": "_from",
          "type": "address"
        },
        {
          "indexed": true,
          "internalType": "address",
          "name": "_to",
          "type": "address"
        },
        {
          "indexed": false,
          "internalType": "uint256",
          "name": "_id",
          "type": "uint256"
        },
        {
          "indexed": false,
          "internalType": "uint256",
          "name": "_amount",
          "type": "uint256"
        }
      ],
      "name": "TransferSingle",
      "type": "event"
    },
    {
      "anonymous": false,
      "inputs": [
        {
          "indexed": false,
          "internalType": "string",
          "name": "_uri",
          "type": "string"
        },
        {
          "indexed": true,
          "internalType": "uint256",
          "name": "_id",
          "type": "uint256"
        }
      ],
      "name": "URI",
      "type": "event"
    },
    {
      "stateMutability": "nonpayable",
      "type": "fallback"
    },
    {
      "inputs": [
        {
          "internalType": "uint256",
          "name": "v",
          "type": "uint256"
        }
      ],
      "name": "_uint2str",
      "outputs": [
        {
          "internalType": "string",
          "name": "",
          "type": "string"
        }
      ],
      "stateMutability": "pure",
      "type": "function"
    },
    {
      "inputs": [
        {
          "internalType": "address",
          "name": "_owner",
          "type": "address"
        },
        {
          "internalType": "uint256",
          "name": "_id",
          "type": "uint256"
        }
      ],
      "name": "balanceOf",
      "outputs": [
        {
          "internalType": "uint256",
          "name": "",
          "type": "uint256"
        }
      ],
      "stateMutability": "view",
      "type": "function"
    },
    {
      "inputs": [
        {
          "internalType": "address[]",
          "name": "_owners",
          "type": "address[]"
        },
        {
          "internalType": "uint256[]",
          "name": "_ids",
          "type": "uint256[]"
        }
      ],
      "name": "balanceOfBatch",
      "outputs": [
        {
          "internalType": "uint256[]",
          "name": "",
          "type": "uint256[]"
        }
      ],
      "stateMutability": "view",
      "type": "function"
    },
    {
      "inputs": [],
      "name": "baseURI",
      "outputs": [
        {
          "internalType": "string",
          "name": "",
          "type": "string"
        }
      ],
      "stateMutability": "view",
      "type": "function"
    },
    {
      "inputs": [
        {
          "internalType": "address",
          "name": "_from",
          "type": "address"
        },
        {
          "internalType": "uint256[]",
          "name": "_ids",
          "type": "uint256[]"
        },
        {
          "internalType": "uint256[]",
          "name": "_values",
          "type": "uint256[]"
        }
      ],
      "name": "batchBurnMock",
      "outputs": [],
      "stateMutability": "nonpayable",
      "type": "function"
    },
    {
      "inputs": [
        {
          "internalType": "address",
          "name": "_to",
          "type": "address"
        },
        {
          "internalType": "uint256[]",
          "name": "_ids",
          "type": "uint256[]"
        },
        {
          "internalType": "uint256[]",
          "name": "_values",
          "type": "uint256[]"
        },
        {
          "internalType": "bytes",
          "name": "_data",
          "type": "bytes"
        }
      ],
      "name": "batchMintMock",
      "outputs": [],
      "stateMutability": "nonpayable",
      "type": "function"
    },
    {
      "inputs": [
        {
          "internalType": "address",
          "name": "_from",
          "type": "address"
        },
        {
          "internalType": "uint256",
          "name": "_id",
          "type": "uint256"
        },
        {
          "internalType": "uint256",
          "name": "_value",
          "type": "uint256"
        }
      ],
      "name": "burnMock",
      "outputs": [],
      "stateMutability": "nonpayable",
      "type": "function"
    },
    {
      "inputs": [
        {
          "internalType": "uint256",
          "name": "_id",
          "type": "uint256"
        }
      ],
      "name": "getIDBinIndex",
      "outputs": [
        {
          "internalType": "uint256",
          "name": "bin",
          "type": "uint256"
        },
        {
          "internalType": "uint256",
          "name": "index",
          "type": "uint256"
        }
      ],
      "stateMutability": "pure",
      "type": "function"
    },
    {
      "inputs": [
        {
          "internalType": "uint256",
          "name": "_binValues",
          "type": "uint256"
        },
        {
          "internalType": "uint256",
          "name": "_index",
          "type": "uint256"
        }
      ],
      "name": "getValueInBin",
      "outputs": [
        {
          "internalType": "uint256",
          "name": "",
          "type": "uint256"
        }
      ],
      "stateMutability": "pure",
      "type": "function"
    },
    {
      "inputs": [
        {
          "internalType": "address",
          "name": "_owner",
          "type": "address"
        },
        {
          "internalType": "address",
          "name": "_operator",
          "type": "address"
        }
      ],
      "name": "isApprovedForAll",
      "outputs": [
        {
          "internalType": "bool",
          "name": "isOperator",
          "type": "bool"
        }
      ],
      "stateMutability": "view",
      "type": "function"
    },
    {
      "inputs": [
        {
          "internalType": "address",
          "name": "_to",
          "type": "address"
        },
        {
          "internalType": "uint256",
          "name": "_id",
          "type": "uint256"
        },
        {
          "internalType": "uint256",
          "name": "_value",
          "type": "uint256"
        },
        {
          "internalType": "bytes",
          "name": "_data",
          "type": "bytes"
        }
      ],
      "name": "mintMock",
      "outputs": [],
      "stateMutability": "nonpayable",
      "type": "function"
    },
    {
      "inputs": [],
      "name": "name",
      "outputs": [
        {
          "internalType": "string",
          "name": "",
          "type": "string"
        }
      ],
      "stateMutability": "view",
      "type": "function"
    },
    {
      "inputs": [
        {
          "internalType": "address",
          "name": "_from",
          "type": "address"
        },
        {
          "internalType": "address",
          "name": "_to",
          "type": "address"
        },
        {
          "internalType": "uint256[]",
          "name": "_ids",
          "type": "uint256[]"
        },
        {
          "internalType": "uint256[]",
          "name": "_amounts",
          "type": "uint256[]"
        },
        {
          "internalType": "bytes",
          "name": "_data",
          "type": "bytes"
        }
      ],
      "name": "safeBatchTransferFrom",
      "outputs": [],
      "stateMutability": "nonpayable",
      "type": "function"
    },
    {
      "inputs": [
        {
          "internalType": "address",
          "name": "_from",
          "type": "address"
        },
        {
          "internalType": "address",
          "name": "_to",
          "type": "address"
        },
        {
          "internalType": "uint256",
          "name": "_id",
          "type": "uint256"
        },
        {
          "internalType": "uint256",
          "name": "_amount",
          "type": "uint256"
        },
        {
          "internalType": "bytes",
          "name": "_data",
          "type": "bytes"
        }
      ],
      "name": "safeTransferFrom",
      "outputs": [],
      "stateMutability": "nonpayable",
      "type": "function"
    },
    {
      "inputs": [
        {
          "internalType": "address",
          "name": "_operator",
          "type": "address"
        },
        {
          "internalType": "bool",
          "name": "_approved",
          "type": "bool"
        }
      ],
      "name": "setApprovalForAll",
      "outputs": [],
      "stateMutability": "nonpayable",
      "type": "function"
    },
    {
      "inputs": [
        {
          "internalType": "bytes4",
          "name": "_interfaceID",
          "type": "bytes4"
        }
      ],
      "name": "supportsInterface",
      "outputs": [
        {
          "internalType": "bool",
          "name": "",
          "type": "bool"
        }
      ],
      "stateMutability": "pure",
      "type": "function"
    },
    {
      "inputs": [
        {
          "internalType": "uint256",
          "name": "_id",
          "type": "uint256"
        }
      ],
      "name": "uri",
      "outputs": [
        {
          "internalType": "string",
          "name": "",
          "type": "string"
        }
      ],
      "stateMutability": "view",
      "type": "function"
    }
  ],
  "bytecode": "0x60806040523480156200001157600080fd5b5060405162002ebd38038062002ebd833981016040819052620000349162000200565b8151829082906200004d9060039060208501906200006e565b508051620000639060029060208401906200006e565b5050505050620002a8565b8280546200007c906200026b565b90600052602060002090601f016020900481019282620000a05760008555620000eb565b82601f10620000bb57805160ff1916838001178555620000eb565b82800160010185558215620000eb579182015b82811115620000eb578251825591602001919060010190620000ce565b50620000f9929150620000fd565b5090565b5b80821115620000f95760008155600101620000fe565b634e487b7160e01b600052604160045260246000fd5b600082601f8301126200013c57600080fd5b815167ffffffffffffffff808211156200015a576200015a62000114565b604051601f83017fffffffffffffffffffffffffffffffffffffffffffffffffffffffffffffffe0908116603f01168101908282118183101715620001a357620001a362000114565b81604052838152602092508683858801011115620001c057600080fd5b600091505b83821015620001e45785820183015181830184015290820190620001c5565b83821115620001f65760008385830101525b9695505050505050565b600080604083850312156200021457600080fd5b825167ffffffffffffffff808211156200022d57600080fd5b6200023b868387016200012a565b935060208501519150808211156200025257600080fd5b5062000261858286016200012a565b9150509250929050565b600181811c908216806200028057607f821691505b60208210811415620002a257634e487b7160e01b600052602260045260246000fd5b50919050565b612c0580620002b86000396000f3fe608060405234801561001057600080fd5b506004361061011a5760003560e01c80636c0360eb116100b2578063d7a0ad9011610081578063e985e9c511610066578063e985e9c5146102ef578063eaec5f8114610338578063f242432a1461034b5761011a565b8063d7a0ad90146102b4578063db90e83c146102c75761011a565b80636c0360eb14610273578063a22cb4651461027b578063a3f091f51461028e578063bd7a6c41146102a15761011a565b80632eb2c2d6116100ee5780632eb2c2d614610218578063437ecbe91461022d5780634e1273f4146102405780635d7ebde4146102605761011a565b8062fdd58e146101a757806301ffc9a7146101cd57806306fdde03146101f05780630e89341c14610205575b6040517f08c379a000000000000000000000000000000000000000000000000000000000815260206004820152603460248201527f455243313135354d6574614d696e744275726e5061636b656442616c616e636560448201527f4d6f636b3a20494e56414c49445f4d4554484f4400000000000000000000000060648201526084015b60405180910390fd5b6101ba6101b5366004611fa4565b61035e565b6040519081526020015b60405180910390f35b6101e06101db366004611fff565b6103b5565b60405190151581526020016101c4565b6101f86103c0565b6040516101c49190612099565b6101f86102133660046120ac565b61044e565b61022b610226366004612260565b610482565b005b61022b61023b36600461230a565b610626565b61025361024e36600461233d565b610636565b6040516101c49190612438565b6101f861026e3660046120ac565b610930565b6101f8610abe565b61022b61028936600461244b565b610acb565b61022b61029c366004612487565b610b62565b61022b6102af3660046124e8565b610b74565b61022b6102c236600461255c565b610b7f565b6102da6102d53660046120ac565b610b8b565b604080519283526020830191909152016101c4565b6101e06102fd3660046125e9565b73ffffffffffffffffffffffffffffffffffffffff918216600090815260016020908152604080832093909416825291909152205460ff1690565b6101ba61034636600461261c565b610bc5565b61022b61035936600461263e565b610bef565b600080600061036c84610b8b565b73ffffffffffffffffffffffffffffffffffffffff871660009081526020818152604080832085845290915290205491935091506103aa9082610bc5565b925050505b92915050565b60006103af82610d8c565b600380546103cd906126a3565b80601f01602080910402602001604051908101604052809291908181526020018280546103f9906126a3565b80156104465780601f1061041b57610100808354040283529160200191610446565b820191906000526020600020905b81548152906001019060200180831161042957829003601f168201915b505050505081565b6060600261045b83610930565b60405160200161046c929190612713565b6040516020818303038152906040529050919050565b3373ffffffffffffffffffffffffffffffffffffffff861614806104d6575073ffffffffffffffffffffffffffffffffffffffff8516600090815260016020908152604080832033845290915290205460ff165b610562576040517f08c379a000000000000000000000000000000000000000000000000000000000815260206004820152603c60248201527f455243313135355061636b656442616c616e636523736166654261746368547260448201527f616e7366657246726f6d3a20494e56414c49445f4f50455241544f5200000000606482015260840161019e565b73ffffffffffffffffffffffffffffffffffffffff8416610605576040517f08c379a000000000000000000000000000000000000000000000000000000000815260206004820152603d60248201527f455243313135355061636b656442616c616e636523736166654261746368547260448201527f616e7366657246726f6d3a20494e56414c49445f524543495049454e54000000606482015260840161019e565b61061185858585610de9565b61061f858585855a8661124c565b5050505050565b610631838383611403565b505050565b815181516060919081146106cc576040517f08c379a000000000000000000000000000000000000000000000000000000000815260206004820152603960248201527f455243313135355061636b656442616c616e63652362616c616e63654f66426160448201527f7463683a20494e56414c49445f41525241595f4c454e47544800000000000000606482015260840161019e565b6000806106f2856000815181106106e5576106e561281d565b6020026020010151610b8b565b9150915060008060008860008151811061070e5761070e61281d565b602002602001015173ffffffffffffffffffffffffffffffffffffffff1673ffffffffffffffffffffffffffffffffffffffff1681526020019081526020016000206000848152602001908152602001600020549050600083905060008567ffffffffffffffff811115610784576107846120c5565b6040519080825280602002602001820160405280156107ad578160200160208202803683370190505b5090506107ba8385610bc5565b816000815181106107cd576107cd61281d565b602090810291909101015260015b86811015610923576107f88982815181106106e5576106e561281d565b9096509450828614158061087657508981815181106108195761081961281d565b602002602001015173ffffffffffffffffffffffffffffffffffffffff168a600183610845919061287b565b815181106108555761085561281d565b602002602001015173ffffffffffffffffffffffffffffffffffffffff1614155b156108ea576000808b83815181106108905761089061281d565b602002602001015173ffffffffffffffffffffffffffffffffffffffff1673ffffffffffffffffffffffffffffffffffffffff16815260200190815260200160002060008781526020019081526020016000205493508592505b6108f48486610bc5565b8282815181106109065761090661281d565b60209081029190910101528061091b81612892565b9150506107db565b5098975050505050505050565b60408051606480825260a08201909252606091906000908260208201818036833701905050905060005b84156109dc57600061096d600a876128fa565b905061097a600a8761290e565b9550610987816030612922565b60f81b838361099581612892565b9450815181106109a7576109a761281d565b60200101907effffffffffffffffffffffffffffffffffffffffffffffffffffffffffffff1916908160001a9053505061095a565b60008167ffffffffffffffff8111156109f7576109f76120c5565b6040519080825280601f01601f191660200182016040528015610a21576020820181803683370190505b50905060005b82811015610ab457836001610a3c838661287b565b610a46919061287b565b81518110610a5657610a5661281d565b602001015160f81c60f81b828281518110610a7357610a7361281d565b60200101907effffffffffffffffffffffffffffffffffffffffffffffffffffffffffffff1916908160001a90535080610aac81612892565b915050610a27565b5095945050505050565b600280546103cd906126a3565b33600081815260016020908152604080832073ffffffffffffffffffffffffffffffffffffffff87168085529083529281902080547fffffffffffffffffffffffffffffffffffffffffffffffffffffffffffffff001686151590811790915590519081529192917f17307eab39ab6107e8899845ad3d59bd9653f200f220920489ca2b5937696c31910160405180910390a35050565b610b6e8484848461146b565b50505050565b6106318383836114dd565b610b6e84848484611651565b600080610b9b600261010061290e565b610ba5908461290e565b9150610bb4600261010061290e565b610bbe90846128fa565b9050915091565b600080610bd46001600461287b565b90506000610be384600261293a565b9490941c169392505050565b3373ffffffffffffffffffffffffffffffffffffffff86161480610c43575073ffffffffffffffffffffffffffffffffffffffff8516600090815260016020908152604080832033845290915290205460ff165b610ccf576040517f08c379a000000000000000000000000000000000000000000000000000000000815260206004820152603760248201527f455243313135355061636b656442616c616e636523736166655472616e73666560448201527f7246726f6d3a20494e56414c49445f4f50455241544f52000000000000000000606482015260840161019e565b73ffffffffffffffffffffffffffffffffffffffff8416610d72576040517f08c379a000000000000000000000000000000000000000000000000000000000815260206004820152603860248201527f455243313135355061636b656442616c616e636523736166655472616e73666560448201527f7246726f6d3a20494e56414c49445f524543495049454e540000000000000000606482015260840161019e565b610d7e858585856118b2565b61061f858585855a86611921565b60007fffffffff0000000000000000000000000000000000000000000000000000000082167f0e89341c000000000000000000000000000000000000000000000000000000001415610de057506001919050565b6103af82611ace565b815181518114610ea1576040517f08c379a000000000000000000000000000000000000000000000000000000000815260206004820152604260248201527f455243313135355061636b656442616c616e6365235f7361666542617463685460448201527f72616e7366657246726f6d3a20494e56414c49445f4152524159535f4c454e4760648201527f5448000000000000000000000000000000000000000000000000000000000000608482015260a40161019e565b8373ffffffffffffffffffffffffffffffffffffffff168573ffffffffffffffffffffffffffffffffffffffff1614158015610edd5750600081115b156110dd57600080610efb856000815181106106e5576106e561281d565b73ffffffffffffffffffffffffffffffffffffffff8916600090815260208181526040808320858452909152812054875193955091935091610f599190849088908590610f4a57610f4a61281d565b60200260200101516001611b6c565b73ffffffffffffffffffffffffffffffffffffffff881660009081526020818152604080832087845290915281205487519293509091610fb59190859089908590610fa657610fa661281d565b60200260200101516000611b6c565b90508360015b8681101561108b57610fd88982815181106106e5576106e561281d565b90965094508186146110475773ffffffffffffffffffffffffffffffffffffffff8b811660009081526020818152604080832086845280835281842098909855928d16825281815282822094825284815282822095909555878152948452808520549290935291909220549084905b61105e84868a8481518110610f4a57610f4a61281d565b935061107783868a8481518110610fa657610fa661281d565b92508061108381612892565b915050610fbb565b505073ffffffffffffffffffffffffffffffffffffffff808a16600090815260208181526040808320888452825280832095909555918a168152808252838120958152949052922091909155506111c7565b60005b818110156111c5578281815181106110fa576110fa61281d565b6020026020010151611125878684815181106111185761111861281d565b602002602001015161035e565b10156111b3576040517f08c379a000000000000000000000000000000000000000000000000000000000815260206004820152603660248201527f455243313135355061636b656442616c616e6365235f7361666542617463685460448201527f72616e7366657246726f6d3a20554e444552464c4f5700000000000000000000606482015260840161019e565b806111bd81612892565b9150506110e0565b505b8373ffffffffffffffffffffffffffffffffffffffff168573ffffffffffffffffffffffffffffffffffffffff163373ffffffffffffffffffffffffffffffffffffffff167f4a39dc06d4c0dbc64b70af90fd698a233a518aa5d07e595d983b8c0526c8f7fb868660405161123d929190612977565b60405180910390a45050505050565b73ffffffffffffffffffffffffffffffffffffffff85163b156113fb5760008573ffffffffffffffffffffffffffffffffffffffff1663bc197c8184338a8989886040518763ffffffff1660e01b81526004016112ad95949392919061299c565b602060405180830381600088803b1580156112c757600080fd5b5087f11580156112db573d6000803e3d6000fd5b50505050506040513d601f19601f820116820180604052508101906113009190612a07565b90507fffffffff0000000000000000000000000000000000000000000000000000000081167fbc197c8100000000000000000000000000000000000000000000000000000000146113f9576040517f08c379a000000000000000000000000000000000000000000000000000000000815260206004820152604c60248201527f455243313135355061636b656442616c616e6365235f63616c6c6f6e4552433160448201527f313535426174636852656365697665643a20494e56414c49445f4f4e5f52454360648201527f454956455f4d4553534147450000000000000000000000000000000000000000608482015260a40161019e565b505b505050505050565b6114108383836001611ef4565b604080518381526020810183905260009173ffffffffffffffffffffffffffffffffffffffff86169133917fc3d58168c5ae7397731d063d5bbf3d657854427343f4c083240f7aacaa2d0f62910160405180910390a4505050565b6114788484846000611ef4565b604080518481526020810184905273ffffffffffffffffffffffffffffffffffffffff86169160009133917fc3d58168c5ae7397731d063d5bbf3d657854427343f4c083240f7aacaa2d0f62910160405180910390a4610b6e60008585855a86611921565b81518151811461156f576040517f08c379a000000000000000000000000000000000000000000000000000000000815260206004820152603d60248201527f455243313135354d696e744275726e5061636b656442616c616e63652362617460448201527f63684275726e3a20494e56414c49445f4152524159535f4c454e475448000000606482015260840161019e565b60005b818110156115cb576115b9858583815181106115905761159061281d565b60200260200101518584815181106115aa576115aa61281d565b60200260200101516001611ef4565b806115c381612892565b915050611572565b50600073ffffffffffffffffffffffffffffffffffffffff168473ffffffffffffffffffffffffffffffffffffffff163373ffffffffffffffffffffffffffffffffffffffff167f4a39dc06d4c0dbc64b70af90fd698a233a518aa5d07e595d983b8c0526c8f7fb8686604051611643929190612977565b60405180910390a450505050565b81518351146116e2576040517f08c379a000000000000000000000000000000000000000000000000000000000815260206004820152603e60248201527f455243313135354d696e744275726e5061636b656442616c616e6365235f626160448201527f7463684d696e743a20494e56414c49445f4152524159535f4c454e4754480000606482015260840161019e565b82511561182457600080611702856000815181106106e5576106e561281d565b73ffffffffffffffffffffffffffffffffffffffff88166000908152602081815260408083208584529091528120548751939550919350916117519190849088908590610fa657610fa661281d565b86519091508360015b828110156117eb576117778982815181106106e5576106e561281d565b90965094508186146117c05773ffffffffffffffffffffffffffffffffffffffff8a16600090815260208181526040808320948352939052828120949094558584529220549184905b6117d784868a8481518110610fa657610fa661281d565b9350806117e381612892565b91505061175a565b50505073ffffffffffffffffffffffffffffffffffffffff87166000908152602081815260408083209583529490529290922091909155505b8373ffffffffffffffffffffffffffffffffffffffff16600073ffffffffffffffffffffffffffffffffffffffff163373ffffffffffffffffffffffffffffffffffffffff167f4a39dc06d4c0dbc64b70af90fd698a233a518aa5d07e595d983b8c0526c8f7fb868660405161189b929190612977565b60405180910390a4610b6e60008585855a8661124c565b6118bf8483836001611ef4565b6118cc8383836000611ef4565b604080518381526020810183905273ffffffffffffffffffffffffffffffffffffffff808616929087169133917fc3d58168c5ae7397731d063d5bbf3d657854427343f4c083240f7aacaa2d0f629101611643565b73ffffffffffffffffffffffffffffffffffffffff85163b156113fb5760008573ffffffffffffffffffffffffffffffffffffffff1663f23a6e6184338a8989886040518763ffffffff1660e01b8152600401611982959493929190612a24565b602060405180830381600088803b15801561199c57600080fd5b5087f11580156119b0573d6000803e3d6000fd5b50505050506040513d601f19601f820116820180604052508101906119d59190612a07565b90507fffffffff0000000000000000000000000000000000000000000000000000000081167ff23a6e6100000000000000000000000000000000000000000000000000000000146113f9576040517f08c379a000000000000000000000000000000000000000000000000000000000815260206004820152604760248201527f455243313135355061636b656442616c616e6365235f63616c6c6f6e4552433160448201527f31353552656365697665643a20494e56414c49445f4f4e5f524543454956455f60648201527f4d45535341474500000000000000000000000000000000000000000000000000608482015260a40161019e565b60007fffffffff0000000000000000000000000000000000000000000000000000000082167fd9b67a26000000000000000000000000000000000000000000000000000000001415611b2257506001919050565b7f01ffc9a7000000000000000000000000000000000000000000000000000000007fffffffff000000000000000000000000000000000000000000000000000000008316146103af565b600080611b7a85600261293a565b90506000611b8a6001600461287b565b90506000846001811115611ba057611ba0612a74565b1415611cef57611bb285831b88612922565b925086831015611c44576040517f08c379a000000000000000000000000000000000000000000000000000000000815260206004820152603260248201527f455243313135355061636b656442616c616e6365235f7669657755706461746560448201527f42696e56616c75653a204f564552464c4f570000000000000000000000000000606482015260840161019e565b611c4f600280612bc3565b611c5d8689851c8416612922565b10611cea576040517f08c379a000000000000000000000000000000000000000000000000000000000815260206004820152603260248201527f455243313135355061636b656442616c616e6365235f7669657755706461746560448201527f42696e56616c75653a204f564552464c4f570000000000000000000000000000606482015260840161019e565b611eea565b6001846001811115611d0357611d03612a74565b1415611e3c57611d1585831b8861287b565b925086831115611da7576040517f08c379a000000000000000000000000000000000000000000000000000000000815260206004820152603360248201527f455243313135355061636b656442616c616e6365235f7669657755706461746560448201527f42696e56616c75653a20554e444552464c4f5700000000000000000000000000606482015260840161019e565b84818389901c161015611cea576040517f08c379a000000000000000000000000000000000000000000000000000000000815260206004820152603360248201527f455243313135355061636b656442616c616e6365235f7669657755706461746560448201527f42696e56616c75653a20554e444552464c4f5700000000000000000000000000606482015260840161019e565b6040517f08c379a000000000000000000000000000000000000000000000000000000000815260206004820152604560248201527f455243313135355061636b656442616c616e6365235f7669657755706461746560448201527f42696e56616c75653a20494e56414c49445f42494e5f57524954455f4f50455260648201527f4154494f4e000000000000000000000000000000000000000000000000000000608482015260a40161019e565b5050949350505050565b600080611f0085610b8b565b73ffffffffffffffffffffffffffffffffffffffff88166000908152602081815260408083208584529091529020549193509150611f4090828686611b6c565b73ffffffffffffffffffffffffffffffffffffffff909616600090815260208181526040808320948352939052919091209490945550505050565b803573ffffffffffffffffffffffffffffffffffffffff81168114611f9f57600080fd5b919050565b60008060408385031215611fb757600080fd5b611fc083611f7b565b946020939093013593505050565b7fffffffff0000000000000000000000000000000000000000000000000000000081168114611ffc57600080fd5b50565b60006020828403121561201157600080fd5b813561201c81611fce565b9392505050565b60005b8381101561203e578181015183820152602001612026565b83811115610b6e5750506000910152565b60008151808452612067816020860160208601612023565b601f017fffffffffffffffffffffffffffffffffffffffffffffffffffffffffffffffe0169290920160200192915050565b60208152600061201c602083018461204f565b6000602082840312156120be57600080fd5b5035919050565b7f4e487b7100000000000000000000000000000000000000000000000000000000600052604160045260246000fd5b604051601f82017fffffffffffffffffffffffffffffffffffffffffffffffffffffffffffffffe016810167ffffffffffffffff8111828210171561213b5761213b6120c5565b604052919050565b600067ffffffffffffffff82111561215d5761215d6120c5565b5060051b60200190565b600082601f83011261217857600080fd5b8135602061218d61218883612143565b6120f4565b82815260059290921b840181019181810190868411156121ac57600080fd5b8286015b848110156121c757803583529183019183016121b0565b509695505050505050565b600082601f8301126121e357600080fd5b813567ffffffffffffffff8111156121fd576121fd6120c5565b61222e60207fffffffffffffffffffffffffffffffffffffffffffffffffffffffffffffffe0601f840116016120f4565b81815284602083860101111561224357600080fd5b816020850160208301376000918101602001919091529392505050565b600080600080600060a0868803121561227857600080fd5b61228186611f7b565b945061228f60208701611f7b565b9350604086013567ffffffffffffffff808211156122ac57600080fd5b6122b889838a01612167565b945060608801359150808211156122ce57600080fd5b6122da89838a01612167565b935060808801359150808211156122f057600080fd5b506122fd888289016121d2565b9150509295509295909350565b60008060006060848603121561231f57600080fd5b61232884611f7b565b95602085013595506040909401359392505050565b6000806040838503121561235057600080fd5b823567ffffffffffffffff8082111561236857600080fd5b818501915085601f83011261237c57600080fd5b8135602061238c61218883612143565b82815260059290921b840181019181810190898411156123ab57600080fd5b948201945b838610156123d0576123c186611f7b565b825294820194908201906123b0565b965050860135925050808211156123e657600080fd5b506123f385828601612167565b9150509250929050565b600081518084526020808501945080840160005b8381101561242d57815187529582019590820190600101612411565b509495945050505050565b60208152600061201c60208301846123fd565b6000806040838503121561245e57600080fd5b61246783611f7b565b91506020830135801515811461247c57600080fd5b809150509250929050565b6000806000806080858703121561249d57600080fd5b6124a685611f7b565b93506020850135925060408501359150606085013567ffffffffffffffff8111156124d057600080fd5b6124dc878288016121d2565b91505092959194509250565b6000806000606084860312156124fd57600080fd5b61250684611f7b565b9250602084013567ffffffffffffffff8082111561252357600080fd5b61252f87838801612167565b9350604086013591508082111561254557600080fd5b5061255286828701612167565b9150509250925092565b6000806000806080858703121561257257600080fd5b61257b85611f7b565b9350602085013567ffffffffffffffff8082111561259857600080fd5b6125a488838901612167565b945060408701359150808211156125ba57600080fd5b6125c688838901612167565b935060608701359150808211156125dc57600080fd5b506124dc878288016121d2565b600080604083850312156125fc57600080fd5b61260583611f7b565b915061261360208401611f7b565b90509250929050565b6000806040838503121561262f57600080fd5b50508035926020909101359150565b600080600080600060a0868803121561265657600080fd5b61265f86611f7b565b945061266d60208701611f7b565b93506040860135925060608601359150608086013567ffffffffffffffff81111561269757600080fd5b6122fd888289016121d2565b600181811c908216806126b757607f821691505b602082108114156126f1577f4e487b7100000000000000000000000000000000000000000000000000000000600052602260045260246000fd5b50919050565b60008151612709818560208601612023565b9290920192915050565b600080845481600182811c91508083168061272f57607f831692505b6020808410821415612768577f4e487b710000000000000000000000000000000000000000000000000000000086526022600452602486fd5b81801561277c57600181146127ab576127d8565b7fffffffffffffffffffffffffffffffffffffffffffffffffffffffffffffff008616895284890196506127d8565b60008b81526020902060005b868110156127d05781548b8201529085019083016127b7565b505084890196505b5050505050506128146127eb82866126f7565b7f2e6a736f6e000000000000000000000000000000000000000000000000000000815260050190565b95945050505050565b7f4e487b7100000000000000000000000000000000000000000000000000000000600052603260045260246000fd5b7f4e487b7100000000000000000000000000000000000000000000000000000000600052601160045260246000fd5b60008282101561288d5761288d61284c565b500390565b60007fffffffffffffffffffffffffffffffffffffffffffffffffffffffffffffffff8214156128c4576128c461284c565b5060010190565b7f4e487b7100000000000000000000000000000000000000000000000000000000600052601260045260246000fd5b600082612909576129096128cb565b500690565b60008261291d5761291d6128cb565b500490565b600082198211156129355761293561284c565b500190565b6000817fffffffffffffffffffffffffffffffffffffffffffffffffffffffffffffffff04831182151516156129725761297261284c565b500290565b60408152600061298a60408301856123fd565b828103602084015261281481856123fd565b600073ffffffffffffffffffffffffffffffffffffffff808816835280871660208401525060a060408301526129d560a08301866123fd565b82810360608401526129e781866123fd565b905082810360808401526129fb818561204f565b98975050505050505050565b600060208284031215612a1957600080fd5b815161201c81611fce565b600073ffffffffffffffffffffffffffffffffffffffff808816835280871660208401525084604083015283606083015260a06080830152612a6960a083018461204f565b979650505050505050565b7f4e487b7100000000000000000000000000000000000000000000000000000000600052602160045260246000fd5b600181815b80851115612afc57817fffffffffffffffffffffffffffffffffffffffffffffffffffffffffffffffff04821115612ae257612ae261284c565b80851615612aef57918102915b93841c9390800290612aa8565b509250929050565b600082612b13575060016103af565b81612b20575060006103af565b8160018114612b365760028114612b4057612b5c565b60019150506103af565b60ff841115612b5157612b5161284c565b50506001821b6103af565b5060208310610133831016604e8410600b8410161715612b7f575081810a6103af565b612b898383612aa3565b807fffffffffffffffffffffffffffffffffffffffffffffffffffffffffffffffff04821115612bbb57612bbb61284c565b029392505050565b600061201c8383612b0456fea26469706673582212209a16bb37f514af9608ff94b4f4aac1bd3e3cd31c63aeda03f50b427fd789e1f764736f6c63430008090033",
  "linkReferences": {},
  "deployedLinkReferences": {}
}